:020000040000FA
:100000000C9435000C945D000C945D000C945D0024
:100010000C945D000C945D000C945D000C945D00EC
:100020000C945D000C945D000C945D000C945D00DC
:100030000C945D000C945D000C945D000C945D00CC
:100040000C9479010C945D000C94E9010C94C301AB
:100050000C945D000C945D000C945D000C945D00AC
:100060000C945D000C945D008B0311241FBECFEF38
:10007000D8E0DEBFCDBF11E0A0E0B1E0E4ECF7E0F6
:1000800002C005900D92A034B107D9F721E0A0E499
:10009000B1E001C01D92A63FB207E1F710E0C5E351
:1000A000D0E004C02197FE010E94DA03C433D107D7
:1000B000C9F70E941B020C94E0030C940000AF925D
:1000C000BF92CF92DF92EF92FF920F931F93CF9345
:1000D000DF936C017B018B01040F151FEB015E01A7
:1000E000AE18BF08C017D10759F06991D601ED913C
:1000F000FC910190F081E02DC6010995892B79F7DB
:10010000C501DF91CF911F910F91FF90EF90DF908C
:10011000CF90BF90AF900895FC01538D448D252F53
:1001200030E0842F90E0821B930B541710F0CF9691
:10013000089501970895FC01918D828D981761F0C3
:10014000A28DAE0FBF2FB11D5D968C91928D9F5FDA
:100150009F73928F90E008958FEF9FEF0895FC01B9
:10016000918D828D981731F0828DE80FF11D858D6C
:1001700090E008958FEF9FEF0895FC01918D228DFF
:10018000892F90E0805C9F4F821B91098F73992784
:10019000089589E591E00E94BD0021E0892B09F4D2
:1001A00020E0822F089580E090E0892B29F00E94C2
:1001B000C90081110C9400000895FC01A48DA80FC2
:1001C000B92FB11DA35ABF4F2C91848D90E0019699
:1001D0008F739927848FA689B7892C93A089B189B9
:1001E0008C91837080648C93938D848D981306C05A
:1001F0000288F389E02D80818F7D80830895EF92BE
:10020000FF920F931F93CF93DF93EC0181E0888FD0
:100210009B8D8C8D98131AC0E889F989808185FFA0
:1002200015C09FB7F894EE89FF896083E889F98942
:1002300080818370806480839FBF81E090E0DF9144
:10024000CF911F910F91FF90EF900895F62E0B8D97
:1002500010E00F5F1F4F0F731127E02E8C8D8E1152
:100260000CC00FB607FCFACFE889F989808185FFB9
:10027000F5CFCE010E94DD00F1CFEB8DEC0FFD2F0D
:10028000F11DE35AFF4FF0829FB7F8940B8FEA8974
:10029000FB8980818062CFCFCF93DF93EC01888D83
:1002A0008823B9F0AA89BB89E889F9898C9185FDF1
:1002B00003C0808186FD0DC00FB607FCF7CF8C917F
:1002C00085FFF2CF808185FFEDCFCE010E94DD005A
:1002D000E9CFDF91CF910895FC0101900020E9F76B
:1002E0003197AF01481B590BBC0189E591E00C9493
:1002F0005F001F920F920FB60F9211242F933F931E
:100300008F939F93AF93BF93809155019091560126
:10031000A0915701B09158013091540123E0230F6F
:100320002D3758F50196A11DB11D209354018093DE
:10033000550190935601A0935701B09358018091B5
:10034000500190915101A0915201B0915301019639
:10035000A11DB11D8093500190935101A0935201B2
:10036000B0935301BF91AF919F918F913F912F9186
:100370000F900FBE0F901F90189526E8230F02963E
:10038000A11DB11DD2CF1F920F920FB60F92112453
:100390002F933F934F935F936F937F938F939F938D
:1003A000AF93BF93EF93FF9389E591E00E94DD0047
:1003B000FF91EF91BF91AF919F918F917F916F913D
:1003C0005F914F913F912F910F900FBE0F901F9013
:1003D00018951F920F920FB60F9211242F938F939F
:1003E0009F93EF93FF93E0916901F0916A018081FF
:1003F000E0916F01F091700182FD1BC090818091AE
:1004000072018F5F8F7320917301821741F0E09129
:100410007201F0E0E75AFE4F958F80937201FF91D1
:10042000EF919F918F912F910F900FBE0F901F9082
:1004300018958081F4CFCF93DF93CDB7DEB7A19726
:100440000FB6F894DEBF0FBECDBF789484B582603E
:1004500084BD84B5816084BD85B5826085BD85B568
:10046000816085BD80916E00816080936E001092E6
:100470008100809181008260809381008091810061
:1004800081608093810080918000816080938000F2
:100490008091B10084608093B1008091B000816050
:1004A0008093B00080917A00846080937A0080917C
:1004B0007A00826080937A0080917A0081608093D4
:1004C0007A0080917A00806880937A001092C1004F
:1004D000E0916901F0916A0182E08083E091650119
:1004E000F09166011082E0916701F09168018FEC54
:1004F000808310927101E0916D01F0916E0186E0B0
:100500008083E0916B01F0916C0180818061808338
:10051000E0916B01F0916C01808188608083E091B3
:100520006B01F0916C01808180688083E0916B01A8
:10053000F0916C0180818F7D8083E0901801F090B4
:100540001901C0901A01D0901B01A0901C01B0901D
:100550001D0120E0622E21E0722E00E411E038E05F
:10056000832E31E0932EC801F301619171912681B0
:100570003781C29EA001C39E500DD29E500D112402
:10058000E69E9001E79E300DF69E300D1124BA01D3
:10059000620F731F46855785A49E9001A59E300D5E
:1005A000B49E300D1124260F371FDC012D933D938F
:1005B000CD018E169F06C9F660911E0170911F0134
:1005C000C0902001D0902101A0902201B090230181
:1005D00088E491E0D301ED90FD903D0116962D91B8
:1005E0003C911797C29EA001C39E500DD29E500D04
:1005F0001124E69E9001E79E300DF69E300D1124E9
:100600007A01E20EF31E1E964D915C91A49E90011C
:10061000A59E300DB49E300D11242E0D3F1DDC0122
:100620002D933D93CD01E615F705A1F686E391E004
:100630000E946C018EE391E00E946C0180E5282EFF
:1006400081E0382E9AE0492E512C612C712C6801E2
:10065000B8E0CB0ED11CF801819091908F01092C4C
:10066000000CAA08BB08B7FE40C06DE289E591E026
:100670000E94FF0022273327A901281939094A09B6
:100680005B0919A2CE0181967C01CA01B901A301BF
:1006900092010E94B803605DD7016E937D01211520
:1006A00031054105510589F7E114F10419F0C7013D
:1006B0000E946C018CE391E00E946C01C016D1068F
:1006C00051F68EE391E00E946C012C143D0409F078
:1006D000BECF00E010E001151105E9F30E94C9004A
:1006E0008823C9F30E940000F6CFA501940119A246
:1006F000FE01B1967F01CA01B901A30192010E94D6
:10070000B803605DD7016E937D0121153105410568
:10071000510589F7C9CFE9E5F1E01382128288EE2D
:1007200093E0A0E0B0E084839583A683B78388E25A
:1007300091E09183808385EC90E09587848784ECB9
:1007400090E09787868780EC90E0918B808B81EC9E
:1007500090E0938B828B82EC90E0958B848B86EC7F
:1007600090E0978B868B118E128E138E148E0895C7
:10077000A1E21A2EAA1BBB1BFD010DC0AA1FBB1FA5
:10078000EE1FFF1FA217B307E407F50720F0A21B17
:10079000B30BE40BF50B661F771F881F991F1A9484
:1007A00069F760957095809590959B01AC01BD01AE
:1007B000CF010895EE0FFF1F0590F491E02D0994ED
:1007C000F894FFCF0700080009000A000B000C0096
:1007D0000D000E000F0010001100120001000200B9
:1007E000030004000500060000000000FF005F0099
:1007F0008C004C01BD009B00AF00486173696C3AEE
:0408000020000D00C7
:107E0000112484B714BE81FFF0D085E080938100F7
:107E100082E08093C00088E18093C10086E0809377
:107E2000C20080E18093C4008EE0C9D0259A86E02C
:107E300020E33CEF91E0309385002093840096BBD3
:107E4000B09BFECF1D9AA8958150A9F7CC24DD24C4
:107E500088248394B5E0AB2EA1E19A2EF3E0BF2EE7
:107E6000A2D0813461F49FD0082FAFD0023811F036
:107E7000013811F484E001C083E08DD089C08234E0
:107E800011F484E103C0853419F485E0A6D080C0E4
:107E9000853579F488D0E82EFF2485D0082F10E0AE
:107EA000102F00270E291F29000F111F8ED06801E7
:107EB0006FC0863521F484E090D080E0DECF843638
:107EC00009F040C070D06FD0082F6DD080E0C81688
:107ED00080E7D80618F4F601B7BEE895C0E0D1E017
:107EE00062D089930C17E1F7F0E0CF16F0E7DF06D8
:107EF00018F0F601B7BEE89568D007B600FCFDCFD4
:107F0000A601A0E0B1E02C9130E011968C91119780
:107F100090E0982F8827822B932B1296FA010C0160
:107F200087BEE89511244E5F5F4FF1E0A038BF0790
:107F300051F7F601A7BEE89507B600FCFDCF97BE46
:107F4000E89526C08437B1F42ED02DD0F82E2BD052
:107F50003CD0F601EF2C8F010F5F1F4F84911BD097
:107F6000EA94F801C1F70894C11CD11CFA94CF0C13
:107F7000D11C0EC0853739F428D08EE10CD085E9AC
:107F80000AD08FE07ACF813511F488E018D01DD067
:107F900080E101D065CF982F8091C00085FFFCCF94
:107FA0009093C60008958091C00087FFFCCF809118
:107FB000C00084FD01C0A8958091C6000895E0E648
:107FC000F0E098E1908380830895EDDF803219F02E
:107FD00088E0F5DFFFCF84E1DECF1F93182FE3DFCA
:107FE0001150E9F7F2DF1F91089580E0E8DFEE27F6
:047FF000FF270994CA
:027FFE00040479
:00000001FF
