:100000000C9462000C948A000C948A000C948A0070
:100010000C948A000C948A000C948A000C948A0038
:100020000C948A000C948A000C948A000C948A0028
:100030000C948A000C948A000C948A000C948A0018
:100040000C9499020C948A000C9409030C94E3021A
:100050000C948A000C948A000C948A000C948A00F8
:100060000C948A000C948A000000000024002700F1
:100070002A000000000023002600290000000000E4
:10008000250028002B0004040404040404040202D4
:100090000202020203030303030301020408102007
:1000A0004080010204081020010204081020000012
:1000B0000008000201000003040700000000000027
:1000C0000000B70411241FBECFEFD8E0DEBFCDBFC4
:1000D00011E0A0E0B1E0E6E8FAE002C005900D9280
:1000E000A235B107D9F721E0A2E5B1E001C01D9228
:1000F000AE3FB207E1F710E0C2E6D0E004C02197BE
:10010000FE010E943B05C136D107C9F70E943B039F
:100110000C9441050C940000833081F028F4813068
:1001200099F08230A9F008958730A9F08830C9F09D
:100130008430B1F4809180008F7D03C08091800075
:100140008F7780938000089584B58F7784BD08955C
:1001500084B58F7DFBCF8091B0008F778093B00006
:1001600008958091B0008F7DF9CF1F93CF93DF93D7
:10017000282F30E0F901E255FF4F8491F901E6564E
:10018000FF4FD491F901EA57FF4FC491CC23A9F056
:10019000162F81110E948C00EC2FF0E0EE0FFF1F54
:1001A000E458FF4FA591B4918FB7F894EC911111D9
:1001B00008C0D095DE23DC938FBFDF91CF911F91D4
:1001C0000895DE2BF8CF3FB7F89480915D019091B0
:1001D0005E01A0915F01B091600126B5A89B05C0AA
:1001E0002F3F19F00196A11DB11D3FBFBA2FA92FB6
:1001F000982F8827BC01CD01620F711D811D911DB3
:1002000042E0660F771F881F991F4A95D1F708951E
:100210008F929F92AF92BF92CF92DF92EF92FF9216
:100220006B017C010E94E3004B015C01C114D1040D
:10023000E104F104B9F00E94E300681979098A0920
:100240009B09683E73408105910580F321E0C21A45
:10025000D108E108F10888EE880E83E0981EA11C01
:10026000B11CE4CFFF90EF90DF90CF90BF90AF90A4
:100270009F908F900895AF92BF92CF92DF92EF92AE
:10028000FF920F931F93CF93DF936C017B018B0140
:10029000040F151FEB015E01AE18BF08C017D10790
:1002A00059F06991D601ED91FC910190F081E02D1A
:1002B000C6010995892B79F7C501DF91CF911F916F
:1002C0000F91FF90EF90DF90CF90BF90AF90089587
:1002D000FC01538D448D252F30E0842F90E0821B4C
:1002E000930B541710F0CF96089501970895FC01D1
:1002F000918D828D981761F0A28DAE0FBF2FB11D29
:100300005D968C91928D9F5F9F73928F90E0089580
:100310008FEF9FEF0895FC01918D828D981731F03A
:10032000828DE80FF11D858D90E008958FEF9FEF8E
:100330000895FC01918D228D892F90E0805C9F4F64
:10034000821B91098F739927089581E691E00E949D
:10035000990121E0892B09F420E0822F089580E0A3
:1003600090E0892B29F00E94A50181110C940000D6
:100370000895FC01A48DA80FB92FB11DA35ABF4F3A
:100380002C91848D90E001968F739927848FA68994
:10039000B7892C93A089B1898C91837080648C93E8
:1003A000938D848D981306C00288F389E02D808197
:1003B0008F7D80830895EF92FF920F931F93CF93C9
:1003C000DF93EC0181E0888F9B8D8C8D98131AC090
:1003D000E889F989808185FF15C09FB7F894EE8977
:1003E000FF896083E889F9898081837080648083D4
:1003F0009FBF81E090E0DF91CF911F910F91FF901F
:10040000EF900895F62E0B8D10E00F5F1F4F0F73C6
:100410001127E02E8C8D8E110CC00FB607FCFACF81
:10042000E889F989808185FFF5CFCE010E94B90165
:10043000F1CFEB8DEC0FFD2FF11DE35AFF4FF08252
:100440009FB7F8940B8FEA89FB8980818062CFCFB8
:10045000CF93DF93EC01888D8823B9F0AA89BB89FB
:10046000E889F9898C9185FD03C0808186FD0DC0E6
:100470000FB607FCF7CF8C9185FFF2CF808185FF07
:10048000EDCFCE010E94B901E9CFDF91CF91089560
:10049000FC0101900020E9F73197AF01481B590B8F
:1004A000BC0181E691E00C943B018F929F92AF9248
:1004B000BF920F931F93CF93DF93CDB7DEB7A19772
:1004C0000FB6F894DEBF0FBECDBF19A2423008F4BC
:1004D0004AE08E010F5D1F4F842E912CB12CA12C70
:1004E000A50194010E940305E62FB901CA01EA3073
:1004F000F4F4E05DD801EE938D01232B242B252B02
:1005000079F790E080E0109719F0CD010E94480241
:10051000A1960FB6F894DEBF0FBECDBFDF91CF918D
:100520001F910F91BF90AF909F908F900895E95CBD
:10053000E1CF1F920F920FB60F9211242F933F938A
:100540008F939F93AF93BF938091590190915A01DC
:10055000A0915B01B0915C013091580123E0230F21
:100560002D3758F50196A11DB11D20935801809398
:10057000590190935A01A0935B01B0935C01809163
:100580005D0190915E01A0915F01B09160010196C3
:10059000A11DB11D80935D0190935E01A0935F0149
:1005A000B0936001BF91AF919F918F913F912F9137
:1005B0000F900FBE0F901F90189526E8230F0296FC
:1005C000A11DB11DD2CF1F920F920FB60F92112411
:1005D0002F933F934F935F936F937F938F939F934B
:1005E000AF93BF93EF93FF9381E691E00E94B9012F
:1005F000FF91EF91BF91AF919F918F917F916F91FB
:100600005F914F913F912F910F900FBE0F901F90D0
:1006100018951F920F920FB60F9211242F938F935C
:100620009F93EF93FF93E0917101F09172018081AC
:10063000E0917701F091780182FD1BC0908180915B
:100640007A018F5F8F7320917B01821741F0E091D7
:100650007A01F0E0EF59FE4F958F80937A01FF9178
:10066000EF919F918F912F910F900FBE0F901F9040
:1006700018958081F4CF789484B5826084BD84B568
:10068000816084BD85B5826085BD85B5816085BD8D
:1006900080916E00816080936E0010928100809145
:1006A00081008260809381008091810081608093CD
:1006B0008100809180008160809380008091B100F2
:1006C00084608093B1008091B00081608093B0001D
:1006D00080917A00846080937A0080917A008260B1
:1006E00080937A0080917A00816080937A00809173
:1006F0007A00806880937A001092C10062E1662ED1
:1007000061E0762ED3018D919D919927FC01E656EB
:10071000FF4F24918A579F4FFC018491882399F0C1
:1007200090E0880F991FFC01E859FF4FC591D491C3
:10073000FC01E458FF4F859194918FB7F894E881BC
:10074000E22BE8838FBFF1E0A232BF07E1F6E7EAD0
:10075000F0E0249143E9442E40E0542EF2018491CC
:100760008823C1F090E0880F991FFC01E859FF4FE2
:10077000A591B491FC01E458FF4FC591D4913FB7C6
:10078000F8949C91822F809598239C93988189233B
:1007900088833FBFE0917101F091720182E0808314
:1007A000E0916D01F0916E011082E0916F01F09186
:1007B00070018FEC808310927901E0917501F091C6
:1007C000760186E08083E0917301F091740180816D
:1007D00080618083E0917301F09174018081886071
:1007E0008083E0917301F09174018081806880833F
:1007F000E0917301F091740180818F7D808390E49A
:10080000292E88248A9423E0922EA12CB12C00E07A
:1008100010E020927C0080917A00806480937A00BE
:1008200080917A0086FDFCCFA0917800B09179008C
:1008300023E131E00E943405A50194010E94E40403
:1008400069017A01F9E1CF0ED11CE11CF11CD092B3
:100850005701C0925601EBEBF0E08491E7EAF0E03B
:10086000D491F201C491CC2309F45BC081110E94A0
:100870008C00EC2FF0E0EE0FFF1FEE58FF4FA5911C
:10088000B4918C91D82309F44CC0C2E2D1E02297F4
:10089000388061E0832D0E94B500C701B6010E9437
:1008A000080160E0832D0E94B5006C167D0679F783
:1008B000809152019091530101969093530180933E
:1008C000520182E291E00E944802C0905201D09011
:1008D00053010D2C000CEE08FF084AE0C701B601D9
:1008E000F7FE0DC06DE281E691E00E94DB01662714
:1008F0007727CB016C197D098E099F094AE00E9478
:10090000550289E391E00E9448020115110509F49E
:1009100080CF0E94A501882309F47BCF0E940000AC
:1009200078CFC2E1D1E03880229661E0832D0E9429
:10093000B500C701B6010E94080160E0832D0E9446
:10094000B500F1E0C232DF0771F780915401909158
:100950005501019690935501809354018CE391E0E9
:100960000E944802C0905401D0905501B2CFE1E6F8
:10097000F1E01382128288EE93E0A0E0B0E084837D
:100980009583A683B78384E091E09183808385EC8F
:1009900090E09587848784EC90E09787868780EC49
:1009A00090E0918B808B81EC90E0938B828B82EC3A
:1009B00090E0958B848B86EC90E0978B868B118EE4
:1009C000128E138E148E0895052E97FB1EF400943C
:1009D0000E94FB0457FD07D00E94030507FC03D0CB
:1009E0004EF40C94FB0450954095309521953F4F63
:1009F0004F4F5F4F089590958095709561957F4F0B
:100A00008F4F9F4F0895A1E21A2EAA1BBB1BFD0119
:100A10000DC0AA1FBB1FEE1FFF1FA217B307E407DD
:100A2000F50720F0A21BB30BE40BF50B661F771F35
:100A3000881F991F1A9469F7609570958095909515
:100A40009B01AC01BD01CF010895A29FB001B39FEE
:100A5000C001A39F700D811D1124911DB29F700DC7
:100A6000811D1124911D08950E942505B7FF089549
:100A7000821B930B0895EE0FFF1F0590F491E02D5C
:060A80000994F894FFCF79
:100A860000000000DB013B016801280299017701A3
:100A96008B010200030004000500060007000800A1
:100AA60009006A756D6C61682069746572617369A5
:100AB60020747572756E3A20000D0A006A756D6CA9
:100AC60061682069746572617369206E61696B3A49
:020AD6002000FE
:00000001FF
