:100000000C9461000C9473000C9473000C947300B6
:100010000C9473000C9473000C9473000C94730094
:100020000C9473000C9473000C9473000C94730084
:100030000C9473000C9473000C9473000C94730074
:100040000C94F7000C9473000C9473000C947300E0
:100050000C9473000C9473000C9473000C94730054
:100060000C9473000C947300000000002300260021
:10007000290000000008000201000003040700003E
:1000800000000000000000000000250028002B00F8
:1000900000000000240027002A00040404040404D3
:1000A0000404020202020202030303030303010227
:1000B00004081020408001020408102001020408F6
:1000C000102011241FBECFEFD8E0DEBFCDBF21E04E
:1000D000A0E0B1E001C01D92AD30B207E1F70E948F
:1000E00041010C9423020C94000090E0FC01E255C5
:1000F000FF4F249186569F4FFC018491882399F0ED
:1001000090E0880F991FFC01E057FF4FA591B49133
:10011000FC01EA57FF4F859194918FB7F894EC91C9
:10012000E22BEC938FBF0895833081F028F4813067
:1001300099F08230A9F008958730A9F08830C9F08D
:100140008430B1F4809180008F7D03C08091800065
:100150008F7780938000089584B58F7784BD08954C
:1001600084B58F7DFBCF8091B0008F778093B000F6
:1001700008958091B0008F7DF9CF1F93CF93DF93C7
:10018000282F30E0F901EE58FF4F8491F901E25534
:10019000FF4FD491F901E656FF4FC491CC23A9F04B
:1001A000162F81110E949400EC2FF0E0EE0FFF1F3C
:1001B000EA57FF4FA591B4918FB7F894EC911111C4
:1001C00008C0D095DE23DC938FBFDF91CF911F91C4
:1001D0000895DE2BF8CF2FB7F89460910901709144
:1001E0000A0180910B0190910C012FBF08951F927D
:1001F0000F920FB60F9211242F933F938F939F93DB
:10020000AF93BF938091090190910A01A0910B01D6
:10021000B0910C013091080123E0230F2D3758F5E0
:100220000196A11DB11D20930801809309019093AF
:100230000A01A0930B01B0930C01809104019091ED
:100240000501A0910601B09107010196A11DB11D04
:100250008093040190930501A0930601B0930701D8
:10026000BF91AF919F918F913F912F910F900FBEB2
:100270000F901F90189526E8230F0296A11DB11D1F
:10028000D2CF789484B5826084BD84B5816084BD0A
:1002900085B5826085BD85B5816085BD80916E0024
:1002A000816080936E001092810080918100826055
:1002B0008093810080918100816080938100809192
:1002C00080008160809380008091B1008460809381
:1002D000B1008091B00081608093B00080917A007D
:1002E000846080937A0080917A00826080937A00A3
:1002F00080917A00816080937A0080917A00806892
:1003000080937A001092C10087E00E94750086E019
:100310000E94750085E00E947500C6E7D0E002EB00
:1003200010E09EE9E92E90E0F92E20E0C22E20E0B8
:10033000D22E32E0A32EB12C88248394912CFE017E
:100340008491F8017490F70164906620C1F08111E6
:100350000E949400E62DF0E0EE0FFF1FE859FF4FDA
:10036000A591B4918C91782251F0B0920301A092A2
:1003700002010E94EB0070930101609300018091E3
:1003800002019091030181309105C1F08230910505
:10039000B9F1892B61F460E087E00E94BD0060E064
:1003A00086E00E94BD0061E085E00E94BD00C114AE
:1003B000D10409F4C4CF0E940000C1CF60E087E0FF
:1003C0000E94BD0061E086E00E94BD0060E085E023
:1003D0000E94BD000E94EB002091000130910101BC
:1003E000621B730B683E734014F30E94EB00709322
:1003F0000101609300011092030110920201D7CF16
:1004000061E087E00E94BD0060E086E00E94BD00E0
:1004100060E085E00E94BD000E94EB002091000199
:1004200030910101621B730B603A7F400CF4BFCF27
:100430000E94EB0070930101609300019092030110
:0A04400080920201B4CFF894FFCFC0
:00000001FF
