:020000040000FA
:100000000C945D000C9485000C9485000C94850084
:100010000C9485000C9485000C9485000C9485004C
:100020000C9485000C9485000C9485000C9485003C
:100030000C9485000C9485000C9485000C9485002C
:100040000C9453020C9485000C94C3020C949D02F2
:100050000C9485000C9485000C9485000C9485000C
:100060000C9485000C9485000000000024002700FB
:100070002A0000000000250028002B0004040404CE
:100080000404040402020202020203030303030342
:10009000010204081020408001020408102001021F
:1000A00004081020000000080002010000030407FB
:1000B0000000000000000000730411241FBECFEFF9
:1000C000D8E0DEBFCDBF11E0A0E0B1E0E4E9F9E0A7
:1000D00002C005900D92A632B107D9F721E0A6E241
:1000E000B1E001C01D92A03DB207E1F710E0CDE5FF
:1000F000D0E004C02197FE010E94C204CC35D10794
:10010000C9F70E94F5020C94C8040C94000090E01A
:10011000FC01EC55FF4F2491FC01E057FF4F349157
:10012000FC01E458FF4FE491EE23C9F0222339F09B
:10013000233001F1A8F4213019F1223029F1F0E047
:10014000EE0FFF1FEE58FF4FA591B4918FB7F894B3
:10015000EC91611126C030953E233C938FBF0895EA
:100160002730A9F02830C9F0243049F78091800069
:100170008F7D03C0809180008F7780938000DFCFD8
:1001800084B58F7784BDDBCF84B58F7DFBCF809125
:10019000B0008F778093B000D2CF8091B0008F7D78
:1001A000F9CF3E2BDACF3FB7F89480912F01909191
:1001B0003001A0913101B091320126B5A89B05C054
:1001C0002F3F19F00196A11DB11D3FBFBA2FA92FD6
:1001D000982F8827BC01CD01620F711D811D911DD3
:1001E00042E0660F771F881F991F4A95D1F708953F
:1001F000AF92BF92CF92DF92EF92FF920F931F9335
:10020000CF93DF936C017B018B01040F151FEB0172
:100210005E01AE18BF08C017D10759F06991D60129
:10022000ED91FC910190F081E02DC6010995892B9B
:1002300079F7C501DF91CF911F910F91FF90EF905A
:10024000DF90CF90BF90AF900895FC01538D448D07
:10025000252F30E0842F90E0821B930B541710F071
:10026000CF96089501970895FC01918D828D98177E
:1002700061F0A28DAE0FBF2FB11D5D968C91928D56
:100280009F5F9F73928F90E008958FEF9FEF089587
:10029000FC01918D828D981731F0828DE80FF11D50
:1002A000858D90E008958FEF9FEF0895FC01918D6B
:1002B000228D892F90E0805C9F4F821B91098F7364
:1002C0009927089583E391E00E94560121E0892B4C
:1002D00009F420E0822F089580E090E0892B29F036
:1002E0000E94620181110C9400000895FC01A48D0C
:1002F000A80FB92FB11DA35ABF4F2C91848D90E048
:1003000001968F739927848FA689B7892C93A0892A
:10031000B1898C91837080648C93938D848D9813B4
:1003200006C00288F389E02D80818F7D8083089547
:10033000EF92FF920F931F93CF93DF93EC0181E035
:10034000888F9B8D8C8D98131AC0E889F9898081DC
:1003500085FF15C09FB7F894EE89FF896083E8890F
:10036000F98980818370806480839FBF81E090E001
:10037000DF91CF911F910F91FF90EF900895F62E8E
:100380000B8D10E00F5F1F4F0F731127E02E8C8D28
:100390008E110CC00FB607FCFACFE889F98980816D
:1003A00085FFF5CFCE010E947601F1CFEB8DEC0FEA
:1003B000FD2FF11DE35AFF4FF0829FB7F8940B8F8A
:1003C000EA89FB8980818062CFCFCF93DF93EC01F4
:1003D000888D8823B9F0AA89BB89E889F9898C912D
:1003E00085FD03C0808186FD0DC00FB607FCF7CFE9
:1003F0008C9185FFF2CF808185FFEDCFCE010E94E9
:100400007601E9CFDF91CF9108958F929F92AF92BD
:10041000BF920F931F93CF93DF93CDB7DEB7A19712
:100420000FB6F894DEBF0FBECDBF19A2423008F45C
:100430004AE08E010F5D1F4F842E912CB12CA12C10
:10044000A50194010E94A004E62FB901CA01EA3077
:1004500044F5E05DD801EE938D01232B242B252B51
:1004600079F790E080E0109769F0FD01019000209D
:10047000E9F73197AF014A1B5B0BBD0183E391E0C4
:100480000E94F800A1960FB6F894DEBF0FBECDBF54
:10049000DF91CF911F910F91BF90AF909F908F9060
:1004A0000895E95CD7CF1F920F920FB60F921124D7
:1004B0002F933F938F939F93AF93BF9380912B0183
:1004C00090912C01A0912D01B0912E0130912A0123
:1004D00023E0230F2D3758F50196A11DB11D209360
:1004E0002A0180932B0190932C01A0932D01B093AE
:1004F0002E0180912F0190913001A0913101B09196
:1005000032010196A11DB11D80932F0190933001FE
:10051000A0933101B0933201BF91AF919F918F9120
:100520003F912F910F900FBE0F901F90189526E8C6
:10053000230F0296A11DB11DD2CF1F920F920FB6AD
:100540000F9211242F933F934F935F936F937F9359
:100550008F939F93AF93BF93EF93FF9383E391E0C8
:100560000E947601FF91EF91BF91AF919F918F9182
:100570007F916F915F914F913F912F910F900FBE9F
:100580000F901F9018951F920F920FB60F92112483
:100590002F938F939F93EF93FF93E0914301F091FB
:1005A00044018081E0914901F0914A0182FD1BC024
:1005B000908180914C018F5F8F7320914D01821744
:1005C00041F0E0914C01F0E0ED5CFE4F958F80939F
:1005D0004C01FF91EF919F918F912F910F900FBE42
:1005E0000F901F9018958081F4CF789484B5826025
:1005F00084BD84B5816084BD85B5826085BD85B5C7
:10060000816085BD80916E00816080936E00109244
:1006100081008091810082608093810080918100BF
:100620008160809381008091800081608093800050
:100630008091B10084608093B1008091B0008160AE
:100640008093B00080917A00846080937A008091DA
:100650007A00826080937A0080917A008160809332
:100660007A0080917A00806880937A001092C100AD
:10067000A2E1B1E08D919D919927FC01E057FF4FD8
:10068000249184589F4FFC018491882399F090E035
:10069000880F991FFC01E859FF4FC591D491FC01C7
:1006A000EE58FF4F859194918FB7F894E881E22B33
:1006B000E8838FBFF1E0A232BF07E1F6E09143018A
:1006C000F091440182E08083E0913F01F09140018C
:1006D0001082E0914101F09142018FEC80831092F1
:1006E0004B01E0914701F091480186E08083E09161
:1006F0004501F0914601808180618083E091450150
:10070000F0914601808188608083E0914501F091FD
:100710004601808180688083E0914501F091460127
:1007200080818F7D808345E0242E312C06E010E00F
:1007300057E0E52EF12C30E0C32E30E0D32E20E43C
:1007400020937C0080917A00806480937A0080916D
:100750007A0086FDFCCF809078009090790090928E
:10076000290180922801092C000CAA08BB084AE044
:10077000C501B401B7FE0DC06DE283E391E00E94B4
:10078000980166277727CB01681979098A099B099F
:100790004AE00E94050242E050E062E271E083E339
:1007A00091E00E94F80080912801909129018E3FEC
:1007B000E3E09E073CF088E090E09093270180936F
:1007C000260108C08138E3E09E07ECF0F092270193
:1007D000E0922601C0912601D091270122E1822ECC
:1007E00021E0922EB12CA12CCA15DB05F4F1F40105
:1007F0008081F2E08F0E911C61E00E9487002FEF54
:10080000A21AB20AF1CF8130F3E09F072CF01093C7
:10081000270100932601DECF813822E092072CF0D9
:100820003092270120922601D5CF8130E2E09E0749
:100830001CF084E090E0C1CF8138E1E09E071CF01D
:1008400083E090E0BACF8130E1E09E071CF082E0C7
:1008500090E0B3CF813891051CF081E090E0ADCFFE
:100860001092270110922601B5CFCC0FDD1FCE5E6E
:10087000DE4F229681E0C232D80729F060E08881FD
:100880000E948700F6CF0E94D3002B013C0184E632
:10089000882E912CA12CB12C0E94D30064197509CB
:1008A00086099709683E734081059105A8F391E098
:1008B000891A9108A108B108E8EE4E0EE3E05E1E29
:1008C000611C711C81149104A104B10429F7C114A5
:1008D000D10409F434CF0E946201882309F42BCF9C
:1008E0000E94000028CFE3E3F1E01382128288EE39
:1008F00093E0A0E0B0E084839583A683B78384E08F
:1009000091E09183808385EC90E09587848784ECE7
:1009100090E09787868780EC90E0918B808B81ECCC
:1009200090E0938B828B82EC90E0958B848B86ECAD
:1009300090E0978B868B118E128E138E148E0895F5
:10094000A1E21A2EAA1BBB1BFD010DC0AA1FBB1FD3
:10095000EE1FFF1FA217B307E407F50720F0A21B45
:10096000B30BE40BF50B661F771F881F991F1A94B2
:1009700069F760957095809590959B01AC01BD01DC
:10098000CF010895EE0FFF1F0590F491E02D09941B
:10099000F894FFCF000000009801F8002501E50160
:1009A000560134014801020003000400050006005E
:0A09B0000700080009000D0A00000E
:107E0000112484B714BE81FFF0D085E080938100F7
:107E100082E08093C00088E18093C10086E0809377
:107E2000C20080E18093C4008EE0C9D0259A86E02C
:107E300020E33CEF91E0309385002093840096BBD3
:107E4000B09BFECF1D9AA8958150A9F7CC24DD24C4
:107E500088248394B5E0AB2EA1E19A2EF3E0BF2EE7
:107E6000A2D0813461F49FD0082FAFD0023811F036
:107E7000013811F484E001C083E08DD089C08234E0
:107E800011F484E103C0853419F485E0A6D080C0E4
:107E9000853579F488D0E82EFF2485D0082F10E0AE
:107EA000102F00270E291F29000F111F8ED06801E7
:107EB0006FC0863521F484E090D080E0DECF843638
:107EC00009F040C070D06FD0082F6DD080E0C81688
:107ED00080E7D80618F4F601B7BEE895C0E0D1E017
:107EE00062D089930C17E1F7F0E0CF16F0E7DF06D8
:107EF00018F0F601B7BEE89568D007B600FCFDCFD4
:107F0000A601A0E0B1E02C9130E011968C91119780
:107F100090E0982F8827822B932B1296FA010C0160
:107F200087BEE89511244E5F5F4FF1E0A038BF0790
:107F300051F7F601A7BEE89507B600FCFDCF97BE46
:107F4000E89526C08437B1F42ED02DD0F82E2BD052
:107F50003CD0F601EF2C8F010F5F1F4F84911BD097
:107F6000EA94F801C1F70894C11CD11CFA94CF0C13
:107F7000D11C0EC0853739F428D08EE10CD085E9AC
:107F80000AD08FE07ACF813511F488E018D01DD067
:107F900080E101D065CF982F8091C00085FFFCCF94
:107FA0009093C60008958091C00087FFFCCF809118
:107FB000C00084FD01C0A8958091C6000895E0E648
:107FC000F0E098E1908380830895EDDF803219F02E
:107FD00088E0F5DFFFCF84E1DECF1F93182FE3DFCA
:107FE0001150E9F7F2DF1F91089580E0E8DFEE27F6
:047FF000FF270994CA
:027FFE00040479
:00000001FF
