:100000000C9462000C948A000C948A000C948A0070
:100010000C948A000C948A000C948A000C948A0038
:100020000C948A000C948A000C948A000C948A0028
:100030000C948A000C948A000C948A000C948A0018
:100040000C9499020C948A000C9409030C94E3021A
:100050000C948A000C948A000C948A000C948A00F8
:100060000C948A000C948A000000000024002700F1
:100070002A000000000023002600290000000000E4
:10008000250028002B0004040404040404040202D4
:100090000202020203030303030301020408102007
:1000A0004080010204081020010204081020000012
:1000B0000008000201000003040700000000000027
:1000C0000000C40411241FBECFEFD8E0DEBFCDBFB7
:1000D00011E0A0E0B1E0E0EAFAE002C005900D9284
:1000E000A637B107D9F722E0A6E7B1E001C01D921B
:1000F000A032B207E1F710E0C2E6D0E004C02197D9
:10010000FE010E944805C136D107C9F70E943B0392
:100110000C944E050C940000833081F028F481305B
:1001200099F08230A9F008958730A9F08830C9F09D
:100130008430B1F4809180008F7D03C08091800075
:100140008F7780938000089584B58F7784BD08955C
:1001500084B58F7DFBCF8091B0008F778093B00006
:1001600008958091B0008F7DF9CF1F93CF93DF93D7
:10017000282F30E0F901E255FF4F8491F901E6564E
:10018000FF4FD491F901EA57FF4FC491CC23A9F056
:10019000162F81110E948C00EC2FF0E0EE0FFF1F54
:1001A000E458FF4FA591B4918FB7F894EC911111D9
:1001B00008C0D095DE23DC938FBFDF91CF911F91D4
:1001C0000895DE2BF8CF3FB7F89480917F0190918E
:1001D0008001A0918101B091820126B5A89B05C044
:1001E0002F3F19F00196A11DB11D3FBFBA2FA92FB6
:1001F000982F8827BC01CD01620F711D811D911DB3
:1002000042E0660F771F881F991F4A95D1F708951E
:100210008F929F92AF92BF92CF92DF92EF92FF9216
:100220006B017C010E94E3004B015C01C114D1040D
:10023000E104F104B9F00E94E300681979098A0920
:100240009B09683E73408105910580F321E0C21A45
:10025000D108E108F10888EE880E83E0981EA11C01
:10026000B11CE4CFFF90EF90DF90CF90BF90AF90A4
:100270009F908F900895AF92BF92CF92DF92EF92AE
:10028000FF920F931F93CF93DF936C017B018B0140
:10029000040F151FEB015E01AE18BF08C017D10790
:1002A00059F06991D601ED91FC910190F081E02D1A
:1002B000C6010995892B79F7C501DF91CF911F916F
:1002C0000F91FF90EF90DF90CF90BF90AF90089587
:1002D000FC01538D448D252F30E0842F90E0821B4C
:1002E000930B541710F0CF96089501970895FC01D1
:1002F000918D828D981761F0A28DAE0FBF2FB11D29
:100300005D968C91928D9F5F9F73928F90E0089580
:100310008FEF9FEF0895FC01918D828D981731F03A
:10032000828DE80FF11D858D90E008958FEF9FEF8E
:100330000895FC01918D228D892F90E0805C9F4F64
:10034000821B91098F739927089583E891E00E9499
:10035000990121E0892B09F420E0822F089580E0A3
:1003600090E0892B29F00E94A50181110C940000D6
:100370000895FC01A48DA80FB92FB11DA35ABF4F3A
:100380002C91848D90E001968F739927848FA68994
:10039000B7892C93A089B1898C91837080648C93E8
:1003A000938D848D981306C00288F389E02D808197
:1003B0008F7D80830895EF92FF920F931F93CF93C9
:1003C000DF93EC0181E0888F9B8D8C8D98131AC090
:1003D000E889F989808185FF15C09FB7F894EE8977
:1003E000FF896083E889F9898081837080648083D4
:1003F0009FBF81E090E0DF91CF911F910F91FF901F
:10040000EF900895F62E0B8D10E00F5F1F4F0F73C6
:100410001127E02E8C8D8E110CC00FB607FCFACF81
:10042000E889F989808185FFF5CFCE010E94B90165
:10043000F1CFEB8DEC0FFD2FF11DE35AFF4FF08252
:100440009FB7F8940B8FEA89FB8980818062CFCFB8
:10045000CF93DF93EC01888D8823B9F0AA89BB89FB
:10046000E889F9898C9185FD03C0808186FD0DC0E6
:100470000FB607FCF7CF8C9185FFF2CF808185FF07
:10048000EDCFCE010E94B901E9CFDF91CF91089560
:10049000FC0101900020E9F73197AF01481B590B8F
:1004A000BC0183E891E00C943B018F929F92AF9244
:1004B000BF920F931F93CF93DF93CDB7DEB7A19772
:1004C0000FB6F894DEBF0FBECDBF19A2423008F4BC
:1004D0004AE08E010F5D1F4F842E912CB12CA12C70
:1004E000A50194010E941005E62FB901CA01EA3066
:1004F000F4F4E05DD801EE938D01232B242B252B02
:1005000079F790E080E0109719F0CD010E94480241
:10051000A1960FB6F894DEBF0FBECDBFDF91CF918D
:100520001F910F91BF90AF909F908F900895E95CBD
:10053000E1CF1F920F920FB60F9211242F933F938A
:100540008F939F93AF93BF9380917B0190917C0198
:10055000A0917D01B0917E0130917A0123E0230FBB
:100560002D3758F50196A11DB11D20937A01809376
:100570007B0190937C01A0937D01B0937E018091DB
:100580007F0190918001A0918101B091820101963B
:10059000A11DB11D80937F0190938001A0938101E3
:1005A000B0938201BF91AF919F918F913F912F9115
:1005B0000F900FBE0F901F90189526E8230F0296FC
:1005C000A11DB11DD2CF1F920F920FB60F92112411
:1005D0002F933F934F935F936F937F938F939F934B
:1005E000AF93BF93EF93FF9383E891E00E94B9012B
:1005F000FF91EF91BF91AF919F918F917F916F91FB
:100600005F914F913F912F910F900FBE0F901F90D0
:1006100018951F920F920FB60F9211242F938F935C
:100620009F93EF93FF93E0919301F0919401808168
:10063000E0919901F0919A0182FD1BC09081809117
:100640009C018F5F8F7320919D01821741F0E09193
:100650009C01F0E0ED57FE4F958F80939C01FF9138
:10066000EF919F918F912F910F900FBE0F901F9040
:1006700018958081F4CF789484B5826084BD84B568
:10068000816084BD85B5826085BD85B5816085BD8D
:1006900080916E00816080936E0010928100809145
:1006A00081008260809381008091810081608093CD
:1006B0008100809180008160809380008091B100F2
:1006C00084608093B1008091B00081608093B0001D
:1006D00080917A00846080937A0080917A008260B1
:1006E00080937A0080917A00816080937A00809173
:1006F0007A00806880937A001092C10024E231E091
:10070000C4E1D1E0899199919927FC01E656FF4F08
:1007100044918A579F4FFC018491882399F090E07F
:10072000880F991FFC01E859FF4FA591B491FC0176
:10073000E458FF4F859194918FB7F894EC91E42B96
:10074000EC938FBF2C173D07E9F6E5EAF0E0249122
:1007500051E9452E50E0552EF20184918823C9F0CD
:1007600090E0880F991FFC01E859FF4FA591B491C3
:10077000FC01E458FF4F459154913FB7F8949C9188
:10078000822F809598239C93FA01908189238083FE
:100790003FBFE0919301F091940182E08083E0916A
:1007A0008F01F09190011082E0919101F0919201FE
:1007B0008FEC808310929B01E0919701F09198015A
:1007C00086E08083E0919501F091960180818061BF
:1007D0008083E0919501F09196018081886080830B
:1007E000E0919501F0919601808180688083E0918D
:1007F0009501F091960180818F7D808384E291E064
:100800000E94480284E391E00E94480290E4292E6D
:1008100088248A9423E0922EA12CB12C30E0632E00
:1008200030E0732E20927C0080917A008064809367
:100830007A0080917A0086FDFCCFA0917800B0917B
:10084000790026E831E00E944105A50194010E944B
:10085000F10469017A01FAE0CF0ED11CE11CF11C10
:10086000D0920101C0920001E9EBF0E08491E5EA49
:10087000F0E00491F2011491112309F45EC081119A
:100880000E948C00E12FF0E0EE0FFF1FEE58FF4FAB
:10089000A591B4918C91082309F44FC004E211E0B2
:1008A00002501109F801308061E0832D0E94B500EB
:1008B000C701B6010E94080160E0832D0E94B500C7
:1008C000F1E004311F0761F7809176019091770183
:1008D0000196909377018093760187E391E00E94DF
:1008E0004802C0907601D09077010D2C000CEE08E4
:1008F000FF084AE0C701B601F7FE0DC06DE283E8CC
:1009000091E00E94DB0166277727CB016C197D09F6
:100910008E099F094AE00E94550284E391E00E94FB
:1009200048026114710409F47DCF0E94A501882357
:1009300009F478CF0E94000075CF04E111E0F801BE
:1009400030800E5F1F4F61E0832D0E94B500C7010C
:10095000B6010E94080160E0832D0E94B5000C17CB
:100960001D0769F780917801909179010196909324
:1009700079018093780186E591E00E944802C09059
:100980007801D0907901B1CFE3E8F1E013821282CF
:1009900088EE93E0A0E0B0E084839583A683B783DC
:1009A00086E091E09183808385EC90E09587848751
:1009B00084EC90E09787868780EC90E0918B808B29
:1009C00081EC90E0938B828B82EC90E0958B848B12
:1009D00086EC90E0978B868B118E128E138E148E80
:1009E0000895052E97FB1EF400940E94080557FDFC
:1009F00007D00E94100507FC03D04EF40C940805A4
:100A000050954095309521953F4F4F4F5F4F08953A
:100A100090958095709561957F4F8F4F9F4F08956A
:100A2000A1E21A2EAA1BBB1BFD010DC0AA1FBB1FF2
:100A3000EE1FFF1FA217B307E407F50720F0A21B64
:100A4000B30BE40BF50B661F771F881F991F1A94D1
:100A500069F760957095809590959B01AC01BD01FB
:100A6000CF010895A29FB001B39FC001A39F700D55
:100A7000811D1124911DB29F700D811D1124911DA6
:100A800008950E943205B7FF0895821B930B0895C5
:100A9000EE0FFF1F0590F491E02D0994F894FFCF1D
:100AA000640000000000DB013B016801280299019D
:100AB00077018B0102000300040005000600070017
:100AC0000800090048656C6C6F2042494E55532060
:100AD00041534F000D0A006A756D6C61682069749E
:100AE00065726173692061746173206B6520626156
:100AF0007761683A20006A756D6C61682069746579
:100B000072617369206261776168206B652061742E
:060B100061733A200000B1
:00000001FF
