:100000000C9462000C948A000C948A000C948A0070
:100010000C948A000C948A000C948A000C948A0038
:100020000C948A000C948A000C948A000C948A0028
:100030000C948A000C948A000C948A000C948A0018
:100040000C94AB020C948A000C941B030C94F502E4
:100050000C948A000C948A000C948A000C948A00F8
:100060000C948A000C948A000000000024002700F1
:100070002A0000000000250028002B0000000000DE
:1000800023002600290004040404040404040202DA
:100090000202020203030303030301020408102007
:1000A0004080010204081020010204081020000012
:1000B0000008000201000003040700000000000027
:1000C0000000400511241FBECFEFD8E0DEBFCDBF3A
:1000D00011E0A0E0B1E0E8E9FBE002C005900D927C
:1000E000A235B107D9F722E0A2E5B1E001C01D9227
:1000F000A530B207E1F710E0C2E6D0E004C02197D6
:10010000FE010E94C405C136D107C9F70E944D0304
:100110000C94CA050C940000833081F028F48130DF
:1001200099F08230A9F008958730A9F08830C9F09D
:100130008430B1F4809180008F7D03C08091800075
:100140008F7780938000089584B58F7784BD08955C
:1001500084B58F7DFBCF8091B0008F778093B00006
:1001600008958091B0008F7DF9CFCF93DF93EBEBB3
:10017000F0E08491E7EAF0E0D491E3E9F0E0C491A3
:10018000CC23A1F081110E948C00EC2FF0E0EE0F47
:10019000FF1FE458FF4FA591B491EC91ED2381E04E
:1001A00090E009F480E0DF91CF91089580E090E045
:1001B000FACF1F93CF93DF93282F30E0F901E25558
:1001C000FF4F8491F901E656FF4FD491F901EA57A8
:1001D000FF4FC491CC23A9F0162F81110E948C00EF
:1001E000EC2FF0E0EE0FFF1FEE58FF4FA591B491FA
:1001F0008FB7F894EC91111108C0D095DE23DC93F1
:100200008FBFDF91CF911F910895DE2BF8CF3FB7BD
:10021000F8948091640190916501A0916601B0917C
:10022000670126B5A89B05C02F3F19F00196A11DB7
:10023000B11D3FBFBA2FA92F982F8827BC01CD0130
:10024000620F711D811D911D42E0660F771F881F8F
:10025000991F4A95D1F70895AF92BF92CF92DF923E
:10026000EF92FF920F931F93CF93DF936C017B016B
:100270008B01040F151FEB015E01AE18BF08C017FC
:10028000D10759F06991D601ED91FC910190F0816F
:10029000E02DC6010995892B79F7C501DF91CF9132
:1002A0001F910F91FF90EF90DF90CF90BF90AF9094
:1002B0000895FC01538D448D252F30E0842F90E06C
:1002C000821B930B541710F0CF9608950197089551
:1002D000FC01918D828D981761F0A28DAE0FBF2F1A
:1002E000B11D5D968C91928D9F5F9F73928F90E070
:1002F00008958FEF9FEF0895FC01918D828D9817DF
:1003000031F0828DE80FF11D858D90E008958FEF1B
:100310009FEF0895FC01918D228D892F90E0805CE4
:100320009F4F821B91098F739927089588E691E06A
:100330000E948A0121E0892B09F420E0822F089590
:1003400080E090E0892B29F00E94960181110C94A5
:1003500000000895FC01A48DA80FB92FB11DA35A68
:10036000BF4F2C91848D90E001968F739927848FD5
:10037000A689B7892C93A089B1898C9183708064F8
:100380008C93938D848D981306C00288F389E02D99
:1003900080818F7D80830895EF92FF920F931F934A
:1003A000CF93DF93EC0181E0888F9B8D8C8D981328
:1003B0001AC0E889F989808185FF15C09FB7F89434
:1003C000EE89FF896083E889F98980818370806480
:1003D00080839FBF81E090E0DF91CF911F910F91CB
:1003E000FF90EF900895F62E0B8D10E00F5F1F4FDA
:1003F0000F731127E02E8C8D8E110CC00FB607FCE9
:10040000FACFE889F989808185FFF5CFCE010E9476
:10041000AA01F1CFEB8DEC0FFD2FF11DE35AFF4F39
:10042000F0829FB7F8940B8FEA89FB898081806204
:10043000CFCFCF93DF93EC01888D8823B9F0AA89C1
:10044000BB89E889F9898C9185FD03C0808186FD8F
:100450000DC00FB607FCF7CF8C9185FFF2CF8081DE
:1004600085FFEDCFCE010E94AA01E9CFDF91CF91A8
:100470000895FC0101900020E9F73197AF01481B76
:10048000590BBC0188E691E00C942C018F929F924D
:10049000AF92BF920F931F93CF93DF93CDB7DEB789
:1004A000A1970FB6F894DEBF0FBECDBF19A24230A0
:1004B00008F44AE08E010F5D1F4F842E912CB12C61
:1004C000A12CA50194010E948C05E62FB901CA0157
:1004D000EA30F4F4E05DD801EE938D01232B242B58
:1004E000252B79F790E080E0109719F0CD010E945C
:1004F0003902A1960FB6F894DEBF0FBECDBFDF91D3
:10050000CF911F910F91BF90AF909F908F900895C2
:10051000E95CE1CFCF92DF92EF92FF92CF93DF932E
:100520006B017C016DE288E691E00E94CC01EC0158
:1005300066277727CB016C197D098E099F094AE050
:100540000E9446028C0F9D1FDF91CF91FF90EF908C
:10055000DF90CF9008951F920F920FB60F92112443
:100560002F933F938F939F93AF93BF93809160019D
:1005700090916101A0916201B091630130915F019E
:1005800023E0230F2D3758F50196A11DB11D2093AF
:100590005F018093600190936101A0936201B09329
:1005A00063018091640190916501A0916601B09111
:1005B00067010196A11DB11D8093640190936501AF
:1005C000A0936601B0936701BF91AF919F918F9106
:1005D0003F912F910F900FBE0F901F90189526E816
:1005E000230F0296A11DB11DD2CF1F920F920FB6FD
:1005F0000F9211242F933F934F935F936F937F93A9
:100600008F939F93AF93BF93EF93FF9388E691E00F
:100610000E94AA01FF91EF91BF91AF919F918F919D
:100620007F916F915F914F913F912F910F900FBEEE
:100630000F901F9018951F920F920FB60F921124D2
:100640002F938F939F93EF93FF93E0917801F09115
:1006500079018081E0917E01F0917F0182FD1BC0D4
:100660009081809181018F5F8F7320918201821729
:1006700041F0E0918101F0E0E859FE4F958F8093C1
:100680008101FF91EF919F918F912F910F900FBE5C
:100690000F901F9018958081F4CF789484B5826074
:1006A00084BD84B5816084BD85B5826085BD85B516
:1006B000816085BD80916E00816080936E00109294
:1006C000810080918100826080938100809181000F
:1006D00081608093810080918000816080938000A0
:1006E0008091B10084608093B1008091B0008160FE
:1006F0008093B00080917A00846080937A0080912A
:100700007A00826080937A0080917A008160809381
:100710007A0080917A00806880937A001092C100FC
:10072000A2E1B1E022E231E08D919D919927FC0197
:10073000E656FF4F44918A579F4FFC0184918823CE
:1007400099F090E0880F991FFC01E859FF4FC5917F
:10075000D491FC01EE58FF4F859194918FB7F89496
:10076000E881E42BE8838FBF2A173B07E9F6E7EA25
:10077000F0E02491E3E9F0E084918823C1F090E077
:10078000880F991FFC01E859FF4FC591D491FC01D6
:10079000EE58FF4FA591B4919FB7F8948881E22F4E
:1007A000E0958E2388838C91E823EC939FBF0E9471
:1007B000B50021E0892B09F420E020935C01E09151
:1007C0007801F091790182E08083E0917401F091E9
:1007D00075011082E0917601F09177018FEC8083B2
:1007E00010928001E0917C01F0917D0186E0808390
:1007F000E0917A01F0917B01808180618083E091BA
:100800007A01F0917B01808188608083E0917A0198
:10081000F0917B01808180688083E0917A01F09182
:100820007B0180818F7D808320E4222E44244A94A2
:1008300033E0532E612C712C07E010E020927C00F5
:1008400080917A00806480937A0080917A0086FD9E
:10085000FCCFA0917800B091790023E131E00E94B3
:10086000BD05A30192010E946D05275E3F4F4F4FCA
:100870005F4F30935E0120935D010E94B50020918F
:100880005C0128171906D9F02FB7F8948091600100
:1008900090916101A0916201B09163012FBF80939B
:1008A000580190935901A0935A01B0935B010E94A3
:1008B000B50021E0892B09F420E020935C01C09170
:1008C0005201D0915301FE01EE0FFF1FEE5EFE4F6D
:1008D000308080915C0161E0882309F469C0832D38
:1008E0000E94D900C0905D01D0905E010D2C000CDB
:1008F000EE08FF080E9407014B015C01C114D104FE
:10090000E104F104B9F00E940701681979098A0924
:100910009B09683E73408105910580F3F1E0CF1A91
:10092000D108E108F10828EE820E23E0921EA11CF6
:10093000B11CE4CF60E0832D0E94D9002197D7FD40
:100940001EC0D0935301C0935201809156019091E3
:1009500057010196909357018093560182E291E0EE
:100960000E9439026091560170915701072E000CC8
:10097000880B990B97FF08C00E948A0208C0109349
:10098000530100935201E1CF4AE00E94460289E3FD
:1009900091E00E94390280E090E0892B09F44ECF6B
:1009A0000E949601882309F449CF0E94000046CF97
:1009B000832D0E94D9008FB7F89440916001509127
:1009C000610160916201709163018FBF8091580154
:1009D00090915901A0915A01B0915B01481B590BAC
:1009E0006A0B7B0B80915D0190915E01092E000CDA
:1009F000AA0BBB0B481759076A077B077CF1C0910C
:100A00005201D0915301FE01EE0FFF1FEE5EFE4F2B
:100A100060E080810E94D9002196D0935301C09359
:100A200052012FB7F8948091600190916101A091DB
:100A30006201B09163012FBF8093580190935901D7
:100A4000A0935A01B0935B018091520190915301A0
:100A5000089724F010925301109252018091540192
:100A600090915501019690935501809354018CE328
:100A700091E00E943902609154017091550176CF46
:100A8000E8E6F1E01382128288EE93E0A0E0B0E0A5
:100A900084839583A683B78384E091E091838083E8
:100AA00085EC90E09587848784EC90E09787868733
:100AB00080EC90E0918B808B81EC90E0938B828B2B
:100AC00082EC90E0958B848B86EC90E0978B868B04
:100AD000118E128E138E148E0895052E97FB1EF420
:100AE00000940E94840557FD07D00E948C0507FCE6
:100AF00003D04EF40C948405509540953095219583
:100B00003F4F4F4F5F4F0895909580957095619539
:100B10007F4F8F4F9F4F0895A1E21A2EAA1BBB1B38
:100B2000FD010DC0AA1FBB1FEE1FFF1FA217B307B9
:100B3000E407F50720F0A21BB30BE40BF50B661FCF
:100B4000771F881F991F1A9469F760957095809593
:100B500090959B01AC01BD01CF010895A29FB0010A
:100B6000B39FC001A39F700D811D1124911DB29FE1
:100B7000700D811D1124911D08950E94AE05B7FFCF
:100B80000895821B930B0895EE0FFF1F0590F491BB
:080B9000E02D0994F894FFCF59
:100B980000000000CC012C01590119028A016801EA
:100BA8007C0102000300040005000600070008009D
:100BB80009006A756D6C6168206974657261736992
:100BC80020747572756E3A20000D0A006A756D6C96
:100BD80061682069746572617369206E61696B3A36
:020BE8002000EB
:00000001FF
