:100000000C9462000C948A000C948A000C948A0070
:100010000C948A000C948A000C948A000C948A0038
:100020000C948A000C948A000C948A000C948A0028
:100030000C948A000C948A000C948A000C948A0018
:100040000C9422020C948A000C9492020C946C0280
:100050000C948A000C948A000C948A000C948A00F8
:100060000C948A000C948A000000000024002700F1
:100070002A000000000023002600290000000000E4
:10008000250028002B0004040404040404040202D4
:100090000202020203030303030301020408102007
:1000A0004080010204081020010204081020000012
:1000B0000008000201000003040700000000000027
:1000C00000004C0411241FBECFEFD8E0DEBFCDBF2F
:1000D00011E0A0E0B1E0E6E4F9E002C005900D9285
:1000E000A633B107D9F721E0A6E3B1E001C01D9224
:1000F000AE3DB207E1F710E0C2E6D0E004C02197C0
:10010000FE010E949B04C136D107C9F70E94C402B8
:100110000C94A1040C940000833081F028F4813009
:1001200099F08230A9F008958730A9F08830C9F09D
:100130008430B1F4809180008F7D03C08091800075
:100140008F7780938000089584B58F7784BD08955C
:1001500084B58F7DFBCF8091B0008F778093B00006
:1001600008958091B0008F7DF9CF1F93CF93DF93D7
:10017000282F30E0F901E255FF4F8491F901E6564E
:10018000FF4FD491F901EA57FF4FC491CC23A9F056
:10019000162F81110E948C00EC2FF0E0EE0FFF1F54
:1001A000E458FF4FA591B4918FB7F894EC911111D9
:1001B00008C0D095DE23DC938FBFDF91CF911F91D4
:1001C0000895DE2BF8CF3FB7F89480913D019091D0
:1001D0003E01A0913F01B091400126B5A89B05C00A
:1001E0002F3F19F00196A11DB11D3FBFBA2FA92FB6
:1001F000982F8827BC01CD01620F711D811D911DB3
:1002000042E0660F771F881F991F4A95D1F708951E
:10021000AF92BF92CF92DF92EF92FF920F931F9314
:10022000CF93DF936C017B018B01040F151FEB0152
:100230005E01AE18BF08C017D10759F06991D60109
:10024000ED91FC910190F081E02DC6010995892B7B
:1002500079F7C501DF91CF911F910F91FF90EF903A
:10026000DF90CF90BF90AF900895FC01538D448DE7
:10027000252F30E0842F90E0821B930B541710F051
:10028000CF96089501970895FC01918D828D98175E
:1002900061F0A28DAE0FBF2FB11D5D968C91928D36
:1002A0009F5F9F73928F90E008958FEF9FEF089567
:1002B000FC01918D828D981731F0828DE80FF11D30
:1002C000858D90E008958FEF9FEF0895FC01918D4B
:1002D000228D892F90E0805C9F4F821B91098F7344
:1002E0009927089581E491E00E94660121E0892B1D
:1002F00009F420E0822F089580E090E0892B29F016
:100300000E94720181110C9400000895FC01A48DDB
:10031000A80FB92FB11DA35ABF4F2C91848D90E027
:1003200001968F739927848FA689B7892C93A0890A
:10033000B1898C91837080648C93938D848D981394
:1003400006C00288F389E02D80818F7D8083089527
:10035000EF92FF920F931F93CF93DF93EC0181E015
:10036000888F9B8D8C8D98131AC0E889F9898081BC
:1003700085FF15C09FB7F894EE89FF896083E889EF
:10038000F98980818370806480839FBF81E090E0E1
:10039000DF91CF911F910F91FF90EF900895F62E6E
:1003A0000B8D10E00F5F1F4F0F731127E02E8C8D08
:1003B0008E110CC00FB607FCFACFE889F98980814D
:1003C00085FFF5CFCE010E948601F1CFEB8DEC0FBA
:1003D000FD2FF11DE35AFF4FF0829FB7F8940B8F6A
:1003E000EA89FB8980818062CFCFCF93DF93EC01D4
:1003F000888D8823B9F0AA89BB89E889F9898C910D
:1004000085FD03C0808186FD0DC00FB607FCF7CFC8
:100410008C9185FFF2CF808185FFEDCFCE010E94C8
:100420008601E9CFDF91CF910895FC010190002072
:10043000E9F73197AF01481B590BBC0181E491E00A
:100440000C9408011F920F920FB60F9211242F9354
:100450003F938F939F93AF93BF9380913901909176
:100460003A01A0913B01B0913C013091380123E069
:10047000230F2D3758F50196A11DB11D209338018A
:100480008093390190933A01A0933B01B0933C01D2
:1004900080913D0190913E01A0913F01B0914001BA
:1004A0000196A11DB11D80933D0190933E01A09343
:1004B0003F01B0934001BF91AF919F918F913F91C8
:1004C0002F910F900FBE0F901F90189526E8230FC5
:1004D0000296A11DB11DD2CF1F920F920FB60F929F
:1004E00011242F933F934F935F936F937F938F9339
:1004F0009F93AF93BF93EF93FF9381E491E00E94AA
:100500008601FF91EF91BF91AF919F918F917F9164
:100510006F915F914F913F912F910F900FBE0F9070
:100520001F9018951F920F920FB60F9211242F93C0
:100530008F939F93EF93FF93E0915101F0915201BC
:100540008081E0915701F091580182FD1BC090819C
:1005500080915A018F5F8F7320915B01821741F068
:10056000E0915A01F0E0EF5BFE4F958F80935A01C6
:10057000FF91EF919F918F912F910F900FBE0F9050
:100580001F9018958081F4CFCF93DF93CDB7DEB75E
:10059000A2970FB6F894DEBF0FBECDBF789484B596
:1005A000826084BD84B5816084BD85B5826085BD6F
:1005B00085B5816085BD80916E00816080936E00FD
:1005C00010928100809181008260809381008091EF
:1005D00081008160809381008091800081608093A0
:1005E00080008091B10084608093B1008091B00060
:1005F00081608093B00080917A00846080937A005B
:1006000080917A00826080937A0080917A00816084
:1006100080937A0080917A00806880937A001092AB
:10062000C100E0915101F091520182E08083E0919C
:100630004D01F0914E011082E0914F01F091500177
:100640008FEC808310925901E0915501F091560191
:1006500086E08083E0915301F091540180818061B4
:100660008083E0915301F091540180818860808300
:10067000E0915301F0915401808180688083E09182
:100680005301F091540180818F7D808322E231E01B
:1006900062E1262E61E0362EF101819191911F01D8
:1006A0009927FC01E656FF4F44918A579F4FFC0162
:1006B0008491882399F090E0880F991FFC01E859F4
:1006C000FF4FA591B491FC01E458FF4F859194919F
:1006D0008FB7F894EC91E42BEC938FBF2215330580
:1006E000D9F6E6EAF0E02491E2E9F0E0849188238B
:1006F000C9F090E0880F991FFC01E859FF4FA591C0
:10070000B491FC01E458FF4F459154913FB7F894E0
:100710009C91822F809598239C93FA019081892344
:1007200080833FBF2AE0422E512C612C712CEAEBD2
:10073000F0E08491E6EAF0E01491E2E9F0E004915F
:10074000002309F486C081110E948C00E02FF0E0A4
:10075000EE0FFF1FEE58FF4FA591B4918C91182317
:1007600009F477C002E111E0F801F081FAA30E5F0D
:100770001F4F61E08F2F0E94B5000E94E3004B01E4
:100780005C0184EFC82EDD24D394E12CF12C0E946F
:10079000E300681979098A099B09683E734081055D
:1007A0009105A8F321E0C21AD108E108F10888EE0A
:1007B000880E83E0981EA11CB11CC114D104E10471
:1007C000F10429F760E08AA10E94B50020163106E5
:1007D00059F6809136019091370101969093370137
:1007E0008093360182E291E00E941502C0903601AA
:1007F000D09037010D2C000CEE08FF08F7FE36C034
:100800006DE281E491E00E94A80122273327A9012B
:100810002C193D094E095F0919A28E010F5D1F4F6A
:10082000CA01B901A30192010E947904605DF80137
:1008300062938F01211531054105510589F7011595
:10084000110519F0C8010E94150283E391E00E948E
:10085000150280E090E0892B09F469CF0E947201B3
:10086000882309F464CF0E94000061CFA70196019C
:1008700019A28E010F5D1F4FCA01B901A301920198
:100880000E947904605DF80162938F0121153105A2
:100890004105510589F7D3CFE1E4F1E013821282DB
:1008A00088EE93E0A0E0B0E084839583A683B783CD
:1008B00084E091E09183808385EC90E09587848744
:1008C00084EC90E09787868780EC90E0918B808B1A
:1008D00081EC90E0938B828B82EC90E0958B848B03
:1008E00086EC90E0978B868B118E128E138E148E71
:1008F0000895A1E21A2EAA1BBB1BFD010DC0AA1F61
:10090000BB1FEE1FFF1FA217B307E407F50720F078
:10091000A21BB30BE40BF50B661F771F881F991FF3
:100920001A9469F760957095809590959B01AC013C
:10093000BD01CF010895EE0FFF1F0590F491E02D4A
:060940000994F894FFCFBA
:1009460000000000A80108013501F5016601440117
:1009560058010400050006000700080009000A0007
:100966000B004A756D6C6168204974657261736924
:060976003A20000D0A000A
:00000001FF
