:020000040000FA
:100000000C9462000C948A000C948A000C948A0070
:100010000C948A000C948A000C948A000C948A0038
:100020000C948A000C948A000C948A000C948A0028
:100030000C948A000C948A000C948A000C948A0018
:100040000C9457020C948A000C94C7020C94A102E1
:100050000C948A000C948A000C948A000C948A00F8
:100060000C948A000C948A000000000024002700F1
:100070002A000000000023002600290000000000E4
:10008000250028002B0004040404040404040202D4
:100090000202020203030303030301020408102007
:1000A0004080010204081020010204081020000012
:1000B0000008000201000003040700000000000027
:1000C00000002A0511241FBECFEFD8E0DEBFCDBF50
:1000D00011E0A0E0B1E0E6E9FEE002C005900D927B
:1000E000A835B107D9F722E0A8E5B1E001C01D921B
:1000F000A230B207E1F710E0C2E6D0E004C02197D9
:10010000FE010E944307C136D107C9F70E943E0392
:100110000C9449070C940000E7EBF0E02491E3EA2B
:10012000F0E09491EFE8F0E0E491EE23C9F02223AF
:1001300039F0233001F1A8F4213019F1223029F1EE
:10014000F0E0EE0FFF1FE458FF4FA591B4912FB7D9
:10015000F894EC91811126C090959E239C932FBF1B
:1001600008952730A9F02830C9F0243049F72091AC
:1001700080002F7D03C0209180002F772093800086
:10018000DFCF24B52F7724BDDBCF24B52F7DFBCF68
:100190002091B0002F772093B000D2CF2091B000F3
:1001A0002F7DF9CF9E2BDACF3FB7F8948091610174
:1001B00090916201A0916301B091640126B5A89B62
:1001C00005C02F3F19F00196A11DB11D3FBFBA2FE9
:1001D000A92F982F8827BC01CD01620F711D811DA9
:1001E000911D42E0660F771F881F991F4A95D1F72E
:1001F0000895AF92BF92CF92DF92EF92FF920F934A
:100200001F93CF93DF936C017B018B01040F151FAC
:10021000EB015E01AE18BF08C017D10759F0699114
:10022000D601ED91FC910190F081E02DC601099578
:10023000892B79F7C501DF91CF911F910F91FF9025
:10024000EF90DF90CF90BF90AF900895FC01538D59
:10025000448D252F30E0842F90E0821B930B5417A0
:1002600010F0CF96089501970895FC01918D828D2D
:10027000981761F0A28DAE0FBF2FB11D5D968C91C6
:10028000928D9F5F9F73928F90E008958FEF9FEF05
:100290000895FC01918D828D981731F0828DE80FC1
:1002A000F11D858D90E008958FEF9FEF0895FC017B
:1002B000918D228D892F90E0805C9F4F821B910948
:1002C0008F739927089585E691E00E94570121E0F8
:1002D000892B09F420E0822F089580E090E0892B9B
:1002E00029F00E94630181110C9400000895FC0123
:1002F000A48DA80FB92FB11DA35ABF4F2C91848D87
:1003000090E001968F739927848FA689B7892C93E3
:10031000A089B1898C91837080648C93938D848D36
:10032000981306C00288F389E02D80818F7D808339
:100330000895EF92FF920F931F93CF93DF93EC01F9
:1003400081E0888F9B8D8C8D98131AC0E889F9897C
:10035000808185FF15C09FB7F894EE89FF8960837F
:10036000E889F98980818370806480839FBF81E000
:1003700090E0DF91CF911F910F91FF90EF90089542
:10038000F62E0B8D10E00F5F1F4F0F731127E02E1D
:100390008C8D8E110CC00FB607FCFACFE889F98955
:1003A000808185FFF5CFCE010E947701F1CFEB8DE3
:1003B000EC0FFD2FF11DE35AFF4FF0829FB7F89429
:1003C0000B8FEA89FB8980818062CFCFCF93DF9347
:1003D000EC01888D8823B9F0AA89BB89E889F9895D
:1003E0008C9185FD03C0808186FD0DC00FB607FC92
:1003F000F7CF8C9185FFF2CF808185FFEDCFCE01C5
:100400000E947701E9CFDF91CF910895FC0101901F
:100410000020E9F73197AF01481B590BBC0185E675
:1004200091E00C94F9008F929F92AF92BF920F933C
:100430001F93CF93DF93CDB7DEB7A1970FB6F89494
:10044000DEBF0FBECDBF19A2423008F44AE08E01D4
:100450000F5D1F4F842E912CB12CA12CA50194016E
:100460000E942107E62FB901CA01EA30F4F4E05DE9
:10047000D801EE938D01232B242B252B79F790E0C7
:1004800080E0109719F0CD010E940602A1960FB6E8
:10049000F894DEBF0FBECDBFDF91CF911F910F91BA
:1004A000BF90AF909F908F900895E95CE1CF1F922D
:1004B0000F920FB60F9211242F933F938F939F9318
:1004C000AF93BF9380915D0190915E01A0915F0118
:1004D000B091600130915C0123E0230F2D3758F576
:1004E0000196A11DB11D20935C0180935D01909345
:1004F0005E01A0935F01B0936001809161019091D2
:100500006201A0916301B09164010196A11DB11D2A
:100510008093610190936201A0936301B0936401A1
:10052000BF91AF919F918F913F912F910F900FBEEF
:100530000F901F90189526E8230F0296A11DB11D5C
:10054000D2CF1F920F920FB60F9211242F933F9389
:100550004F935F936F937F938F939F93AF93BF93CB
:10056000EF93FF9385E691E00E947701FF91EF9171
:10057000BF91AF919F918F917F916F915F914F91BB
:100580003F912F910F900FBE0F901F9018951F92C3
:100590000F920FB60F9211242F938F939F93EF9387
:1005A000FF93E0917501F09176018081E0917B01EC
:1005B000F0917C0182FD1BC0908180917E018F5F54
:1005C0008F7320917F01821741F0E0917E01F0E06E
:1005D000EB59FE4F958F80937E01FF91EF919F9194
:1005E0008F912F910F900FBE0F901F9018958081C3
:1005F000F4CFCF92DF92EF92FF920F931F93E82FE9
:10060000F92F05C0015011092109310961F19081CB
:1006100096239417B9F305C0015011092109310936
:1006200011F1908196239413F7CFC12CD12CE12C9A
:10063000F12C0AC08FEFC81AD80AE80AF80A0C157C
:100640001D052E053F0579F080818623841791F3DF
:100650006C2D7D2D8E2D9F2D1F910F91FF90EF9072
:10066000DF90CF90089560E070E080E090E01F910F
:100670000F91FF90EF90DF90CF900895789484B51C
:10068000826084BD84B5816084BD85B5826085BD8E
:1006900085B5816085BD80916E00816080936E001C
:1006A000109281008091810082608093810080910E
:1006B00081008160809381008091800081608093BF
:1006C00080008091B10084608093B1008091B0007F
:1006D00081608093B00080917A00846080937A007A
:1006E00080917A00826080937A0080917A008160A4
:1006F00080937A0080917A00806880937A001092CB
:10070000C100E0917501F091760182E08083E09173
:100710007101F09172011082E0917301F091740106
:100720008FEC808310927D01E0917901F0917A0144
:1007300086E08083E0917701F0917801808180618B
:100740008083E0917701F0917801808188608083D7
:10075000E0917701F0917801808180688083E09159
:100760007701F091780180818F7D808382E191E033
:100770000E9406028CE391E00E940602E3EAF0E0A8
:100780002491EFE8F0E08491882399F090E0880FBD
:10079000991FFC01E859FF4FA591B491FC01E45861
:1007A000FF4F859194918FB7F894EC91E22BEC93E5
:1007B0008FBFE4EAF0E0249150E9252E50E0352E79
:1007C000F10184918823C1F090E0880F991FFC010A
:1007D000E859FF4FA591B491FC01E458FF4FC59132
:1007E000D4913FB7F8949C91822F809598239C9345
:1007F0009881892388833FBFC3E0D0E023E2A22E03
:10080000B12C30E0832E30E0932E80E00E948C00EB
:10081000CE010197F1F781E00E948C00C50101979C
:10082000F1F780E00E948C00E4EAF0E06491F101CD
:100830008491E82FF0E0EE0FFF1FEE58FF4F8591F7
:10084000949100E412E42FE030E0462F0E94F90278
:10085000611571058105910529F06F5F7F4F8F4FFD
:100860009F4F9F700E94F80526E933E44BE05DE35B
:100870000E94AF0620E030E040E05FE30E94AF0658
:10088000609358017093590180935A0190935B01D2
:100890008FE391E00E940602C0905801D090590168
:1008A000E0905A01F0905B01A7019601C701B601E3
:1008B0000E941C078823E1F187E491E00E94060270
:1008C00083E591E00E9406028CE391E00E9406021B
:1008D0000E94D4002B013C0184E6C82ED12CE12CCF
:1008E000F12C0E94D4006419750986099709683EA5
:1008F000734081059105A8F3F1E0CF1AD108E10812
:10090000F10828EE420E23E0521E611C711CC11436
:10091000D104E104F10429F78114910409F475CF9D
:100920000E946301882309F470CF0E9400006DCFFC
:1009300026013701E89477F82FEF3FEF4FE75FE7A5
:10094000C301B2010E941C0781110DC02FEF3FEFC0
:100950004FE75FE7C301B2010E94C40518161CF4FB
:100960008BE491E0ABCF2FEF3FEF4FE75FE4C701A0
:10097000B6010E94AA0618161CF48FE491E09ECFDF
:100980002FEF3FEF4FE75FECC701B6010E94C405B0
:1009900087FDF3CF20E030E0A901C701B6010E9436
:1009A000C40587FF09C06DE285E691E00E949901C8
:1009B000F7FAF094F7F8F0942AE037ED43EA5BE3B6
:1009C000C701B6010E9458052B013C010E94C905D0
:1009D0006B017C010E94F8059B01AC01C301B201CF
:1009E0000E9457052B013C014AE0C701B6010E9455
:1009F00013026EE285E691E00E94990120E030E06A
:100A000040E251E4C301B2010E94AF062B013C0158
:100A10000E94C9056B01F12CE12C4AE0C701B60127
:100A20000E941302C701B6010E94F8059B01AC01A8
:100A3000C301B2010E94570520E030E040E251E4DA
:100A40000E94AF060E94C90590E080E04AE00E9443
:100A5000130236CFE5E6F1E01382128288EE93E0CE
:100A6000A0E0B0E084839583A683B78384E091E01F
:100A70009183808385EC90E09587848784EC90E077
:100A80009787868780EC90E0918B808B81EC90E05B
:100A9000938B828B82EC90E0958B848B86EC90E03C
:100AA000978B868B118E128E138E148E089550584C
:100AB000BB27AA270E946F050C9470060E9462064D
:100AC00038F00E94690620F039F49F3F19F426F4AB
:100AD0000C945F060EF4E095E7FB0C945906E92FA1
:100AE0000E94810658F3BA176207730784079507B7
:100AF00020F079F4A6F50C94A3060EF4E0950B2EE5
:100B0000BA2FA02D0B01B90190010C01CA01A0015F
:100B10001124FF27591B99F0593F50F4503E68F1BA
:100B20001A16F040A22F232F342F4427585FF3CFFB
:100B3000469537952795A795F0405395C9F77EF4CC
:100B40001F16BA0B620B730B840BBAF09150A1F015
:100B5000FF0FBB1F661F771F881FC2F70EC0BA0F9B
:100B6000621F731F841F48F4879577956795B79523
:100B7000F7959E3F08F0B0CF9395880F08F099271E
:100B8000EE0F9795879508950E94350608F481E049
:100B900008950E94890688F09F5798F0B92F9927E9
:100BA000B751B0F0E1F0660F771F881F991F1AF058
:100BB000BA95C9F714C0B13091F00E94A306B1E014
:100BC00008950C94A306672F782F8827B85F39F013
:100BD000B93FCCF3869577956795B395D9F73EF4F1
:100BE00090958095709561957F4F8F4F9F4F089599
:100BF000E89409C097FB3EF49095809570956195B7
:100C00007F4F8F4F9F4F9923A9F0F92F96E9BB276C
:100C10009395F695879577956795B795F111F8CFE8
:100C2000FAF4BB0F11F460FF1BC06F5F7F4F8F4F53
:100C30009F4F16C0882311F096E911C0772321F049
:100C40009EE8872F762F05C0662371F096E8862FE1
:100C500070E060E02AF09A95660F771F881FDAF738
:100C6000880F9695879597F90895990F0008550F65
:100C7000AA0BE0E8FEEF16161706E807F907C0F022
:100C800012161306E407F50798F0621B730B840B2A
:100C9000950B39F40A2661F0232B242B252B21F404
:100CA00008950A2609F4A140A6958FEF811D811DA4
:100CB000089597F99F6780E870E060E008959FEFDE
:100CC00080EC089500240A941616170618060906E3
:100CD000089500240A9412161306140605060895B2
:100CE000092E0394000C11F4882352F0BB0F40F43A
:100CF000BF2B11F460FF04C06F5F7F4F8F4F9F4F7A
:100D0000089557FD9058440F551F59F05F3F71F0FB
:100D10004795880F97FB991F61F09F3F79F0879562
:100D20000895121613061406551FF2CF4695F1DFEB
:100D300008C0161617061806991FF1CF869571057B
:100D4000610508940895E894BB2766277727CB01AF
:100D500097F908950E94350608F48FEF08950E94D0
:100D6000C2060C9470060E94620638F00E94690662
:100D700020F0952311F00C9459060C945F06112471
:100D80000C94A4060E94810670F3959FC1F3950F01
:100D900050E0551F629FF001729FBB27F00DB11DFF
:100DA000639FAA27F00DB11DAA1F649F6627B00D8F
:100DB000A11D661F829F2227B00DA11D621F739F78
:100DC000B00DA11D621F839FA00D611D221F749F86
:100DD0003327A00D611D231F849F600D211D822FCD
:100DE000762F6A2F11249F5750409AF0F1F08823F4
:100DF0004AF0EE0FFF1FBB1F661F771F881F915021
:100E00005040A9F79E3F510580F00C9459060C9470
:100E1000A4065F3FE4F3983ED4F3869577956795F3
:100E2000B795F795E7959F5FC1F7FE2B880F911D4A
:100E30009695879597F908950E943506880B990B2A
:100E40000895A1E21A2EAA1BBB1BFD010DC0AA1F0B
:100E5000BB1FEE1FFF1FA217B307E407F50720F023
:100E6000A21BB30BE40BF50B661F771F881F991F9E
:100E70001A9469F760957095809590959B01AC01E7
:100E8000BD01CF010895EE0FFF1F0590F491E02DF5
:100E90000994F894FFCF000000009901F9002601A1
:100EA000E60157013501490150656E67756B757232
:100EB000616E204A6172616B2064656E67616E20AD
:100EC00053656E736F7220556C747261736F6E69C7
:100ED00063000D0A006A6172616B3A20006E616EF8
:0E0EE00000696E66006F76660020636D00008C
:107E0000112484B714BE81FFF0D085E080938100F7
:107E100082E08093C00088E18093C10086E0809377
:107E2000C20080E18093C4008EE0C9D0259A86E02C
:107E300020E33CEF91E0309385002093840096BBD3
:107E4000B09BFECF1D9AA8958150A9F7CC24DD24C4
:107E500088248394B5E0AB2EA1E19A2EF3E0BF2EE7
:107E6000A2D0813461F49FD0082FAFD0023811F036
:107E7000013811F484E001C083E08DD089C08234E0
:107E800011F484E103C0853419F485E0A6D080C0E4
:107E9000853579F488D0E82EFF2485D0082F10E0AE
:107EA000102F00270E291F29000F111F8ED06801E7
:107EB0006FC0863521F484E090D080E0DECF843638
:107EC00009F040C070D06FD0082F6DD080E0C81688
:107ED00080E7D80618F4F601B7BEE895C0E0D1E017
:107EE00062D089930C17E1F7F0E0CF16F0E7DF06D8
:107EF00018F0F601B7BEE89568D007B600FCFDCFD4
:107F0000A601A0E0B1E02C9130E011968C91119780
:107F100090E0982F8827822B932B1296FA010C0160
:107F200087BEE89511244E5F5F4FF1E0A038BF0790
:107F300051F7F601A7BEE89507B600FCFDCF97BE46
:107F4000E89526C08437B1F42ED02DD0F82E2BD052
:107F50003CD0F601EF2C8F010F5F1F4F84911BD097
:107F6000EA94F801C1F70894C11CD11CFA94CF0C13
:107F7000D11C0EC0853739F428D08EE10CD085E9AC
:107F80000AD08FE07ACF813511F488E018D01DD067
:107F900080E101D065CF982F8091C00085FFFCCF94
:107FA0009093C60008958091C00087FFFCCF809118
:107FB000C00084FD01C0A8958091C6000895E0E648
:107FC000F0E098E1908380830895EDDF803219F02E
:107FD00088E0F5DFFFCF84E1DECF1F93182FE3DFCA
:107FE0001150E9F7F2DF1F91089580E0E8DFEE27F6
:047FF000FF270994CA
:027FFE00040479
:00000001FF
