:100000000C9435000C945D000C945D000C945D0024
:100010000C945D000C945D000C945D000C945D00EC
:100020000C945D000C945D000C945D000C945D00DC
:100030000C945D000C945D000C945D000C945D00CC
:100040000C9421020C945D000C9491020C946B02B0
:100050000C945D000C945D000C945D000C945D00AC
:100060000C945D000C945D005E0311241FBECFEF65
:10007000D8E0DEBFCDBF11E0A0E0B1E0EAE6F7E0F6
:1000800002C005900D92A837B107D9F722E0A8E782
:10009000B1E001C01D92AE31B207E1F710E0C5E357
:1000A000D0E004C02197FE010E94AD03C433D10704
:1000B000C9F70E94C3020C94B3030C940000AF92E2
:1000C000BF92CF92DF92EF92FF920F931F93CF9345
:1000D000DF936C017B018B01040F151FEB015E01A7
:1000E000AE18BF08C017D10759F06991D601ED913C
:1000F000FC910190F081E02DC6010995892B79F7DB
:10010000C501DF91CF911F910F91FF90EF90DF908C
:10011000CF90BF90AF900895FC01538D448D252F53
:1001200030E0842F90E0821B930B541710F0CF9691
:10013000089501970895FC01918D828D981761F0C3
:10014000A28DAE0FBF2FB11D5D968C91928D9F5FDA
:100150009F73928F90E008958FEF9FEF0895FC01B9
:10016000918D828D981731F0828DE80FF11D858D6C
:1001700090E008958FEF9FEF0895FC01918D228DFF
:10018000892F90E0805C9F4F821B91098F73992784
:10019000089581E891E00E94BD0021E0892B09F4D7
:1001A00020E0822F089580E090E0892B29F00E94C2
:1001B000C90081110C9400000895FC01A48DA80FC2
:1001C000B92FB11DA35ABF4F2C91848D90E0019699
:1001D0008F739927848FA689B7892C93A089B189B9
:1001E0008C91837080648C93938D848D981306C05A
:1001F0000288F389E02D80818F7D80830895EF92BE
:10020000FF920F931F93CF93DF93EC0181E0888FD0
:100210009B8D8C8D98131AC0E889F989808185FFA0
:1002200015C09FB7F894EE89FF896083E889F98942
:1002300080818370806480839FBF81E090E0DF9144
:10024000CF911F910F91FF90EF900895F62E0B8D97
:1002500010E00F5F1F4F0F731127E02E8C8D8E1152
:100260000CC00FB607FCFACFE889F989808185FFB9
:10027000F5CFCE010E94DD00F1CFEB8DEC0FFD2F0D
:10028000F11DE35AFF4FF0829FB7F8940B8FEA8974
:10029000FB8980818062CFCFCF93DF93EC01888D83
:1002A0008823B9F0AA89BB89E889F9898C9185FDF1
:1002B00003C0808186FD0DC00FB607FCF7CF8C917F
:1002C00085FFF2CF808185FFEDCFCE010E94DD005A
:1002D000E9CFDF91CF910895FC0101900020E9F76B
:1002E0003197AF01481B590BBC0181E891E00C9498
:1002F0005F00CF93DF930E946C01EC0186E391E0F5
:100300000E946C018C0F9D1FDF91CF9108952F9259
:100310003F924F925F926F927F928F929F92AF9295
:10032000BF92CF92DF92EF92FF920F931F93CF93E2
:10033000DF93CDB7DEB7A1970FB6F894DEBF0FBE3F
:10034000CDBF8C014C018CE0880E911C8AE0482EB8
:10035000512C612C712C5801312C212CF501C190AC
:10036000D1905F010D2C000CEE08FF08F7FE53C082
:100370006DE281E891E00E94FF0022273327A90166
:100380002C193D094E095F0919A2CE0181967C0105
:10039000CA01B901A30192010E948B03605DF701BC
:1003A00062937F01211531054105510589F7E1145B
:1003B000F10419F0C7010E946C0189E391E00E94E9
:1003C0006C01FFEF2F1A3F0A83E02816310431F643
:1003D00086E391E00E946C010A5F1F4F8016910630
:1003E00009F0B9CFA1960FB6F894DEBF0FBECDBF0E
:1003F000DF91CF911F910F91FF90EF90DF90CF9001
:10040000BF90AF909F908F907F906F905F904F9034
:100410003F902F900895A701960119A2CE018196D1
:100420007C01CA01B901A30192010E948B03605DA6
:10043000F70162937F01211531054105510589F7C7
:10044000B6CF1F920F920FB60F9211242F933F93A6
:100450008F939F93AF93BF9380917D0190917E0185
:10046000A0917F01B091800130917C0123E0230FA6
:100470002D3758F50196A11DB11D20937C01809365
:100480007D0190937E01A0937F01B09380018091C4
:10049000780190917901A0917A01B0917B01019648
:1004A000A11DB11D8093780190937901A0937A01E9
:1004B000B0937B01BF91AF919F918F913F912F910D
:1004C0000F900FBE0F901F90189526E8230F0296ED
:1004D000A11DB11DD2CF1F920F920FB60F92112402
:1004E0002F933F934F935F936F937F938F939F933C
:1004F000AF93BF93EF93FF9381E891E00E94DD00FB
:10050000FF91EF91BF91AF919F918F917F916F91EB
:100510005F914F913F912F910F900FBE0F901F90C1
:1005200018951F920F920FB60F9211242F938F934D
:100530009F93EF93FF93E0919101F091920180815D
:10054000E0919701F091980182FD1BC0908180910C
:100550009A018F5F8F7320919B01821741F0E09188
:100560009A01F0E0EF57FE4F958F80939A01FF912B
:10057000EF919F918F912F910F900FBE0F901F9031
:1005800018958081F4CF789484B5826084BD84B559
:10059000816084BD85B5826085BD85B5816085BD7E
:1005A00080916E00816080936E0010928100809136
:1005B00081008260809381008091810081608093BE
:1005C0008100809180008160809380008091B100E3
:1005D00084608093B1008091B00081608093B0000E
:1005E00080917A00846080937A0080917A008260A2
:1005F00080937A0080917A00816080937A00809164
:100600007A00806880937A001092C100E091910195
:10061000F091920182E08083E0918D01F0918E0152
:100620001082E0918F01F09190018FEC8083109205
:100630009901E0919501F091960186E08083E09127
:100640009301F0919401808180618083E091930116
:10065000F0919401808188608083E0919301F09112
:100660009401808180688083E0919301F0919401EE
:1006700080818F7D8083C0E0D0E08BE391E00E9499
:10068000790188E191E00E9487018FE491E00E9466
:1006900079018CE091E00E94870183E691E00E945D
:1006A000790180E091E00E948701209731F30E9458
:1006B000C900882311F30E940000DFCFE1E8F1E0D8
:1006C0001382128288EE93E0A0E0B0E084839583E9
:1006D000A683B78388E291E09183808385EC90E0E4
:1006E0009587848784EC90E09787868780EC90E0FC
:1006F000918B808B81EC90E0938B828B82EC90E0ED
:10070000958B848B86EC90E0978B868B118E128E66
:10071000138E148E0895A1E21A2EAA1BBB1BFD0195
:100720000DC0AA1FBB1FEE1FFF1FA217B307E407D0
:10073000F50720F0A21BB30BE40BF50B661F771F28
:10074000881F991F1A9469F7609570958095909508
:100750009B01AC01BD01CF010895EE0FFF1F059075
:0A076000F491E02D0994F894FFCF06
:10076A000100020000000700000000000100020072
:10077A0003000400050000000B000C000D000E0031
:10078A000F00100000000000FF005F008C004C0109
:10079A00BD009B00AF000D0A0020006E696C616904
:1007AA00206461726920417272617920313A006E67
:1007BA00696C616920646172692041727261792091
:1007CA00323A006E696C6169206461726920417213
:0807DA0072617920333A00003E
:00000001FF
