:020000040000FA
:100000000C9435000C945D000C945D000C945D0024
:100010000C945D000C945D000C945D000C945D00EC
:100020000C945D000C945D000C945D000C945D00DC
:100030000C945D000C945D000C945D000C945D00CC
:100040000C94D1010C945D000C9441020C941B02A1
:100050000C945D000C945D000C945D000C945D00AC
:100060000C945D000C945D002A0311241FBECFEF99
:10007000D8E0DEBFCDBF11E0A0E0B1E0E2E0F7E004
:1000800002C005900D92A037B107D9F722E0A0E792
:10009000B1E001C01D92A631B207E1F710E0C5E35F
:1000A000D0E004C02197FE010E947903C433D10738
:1000B000C9F70E9473020C947F030C940000AF9266
:1000C000BF92CF92DF92EF92FF920F931F93CF9345
:1000D000DF936C017B018B01040F151FEB015E01A7
:1000E000AE18BF08C017D10759F06991D601ED913C
:1000F000FC910190F081E02DC6010995892B79F7DB
:10010000C501DF91CF911F910F91FF90EF90DF908C
:10011000CF90BF90AF900895FC01538D448D252F53
:1001200030E0842F90E0821B930B541710F0CF9691
:10013000089501970895FC01918D828D981761F0C3
:10014000A28DAE0FBF2FB11D5D968C91928D9F5FDA
:100150009F73928F90E008958FEF9FEF0895FC01B9
:10016000918D828D981731F0828DE80FF11D858D6C
:1001700090E008958FEF9FEF0895FC01918D228DFF
:10018000892F90E0805C9F4F821B91098F73992784
:10019000089589E791E00E94BD0021E0892B09F4D0
:1001A00020E0822F089580E090E0892B29F00E94C2
:1001B000C90081110C9400000895FC01A48DA80FC2
:1001C000B92FB11DA35ABF4F2C91848D90E0019699
:1001D0008F739927848FA689B7892C93A089B189B9
:1001E0008C91837080648C93938D848D981306C05A
:1001F0000288F389E02D80818F7D80830895EF92BE
:10020000FF920F931F93CF93DF93EC0181E0888FD0
:100210009B8D8C8D98131AC0E889F989808185FFA0
:1002200015C09FB7F894EE89FF896083E889F98942
:1002300080818370806480839FBF81E090E0DF9144
:10024000CF911F910F91FF90EF900895F62E0B8D97
:1002500010E00F5F1F4F0F731127E02E8C8D8E1152
:100260000CC00FB607FCFACFE889F989808185FFB9
:10027000F5CFCE010E94DD00F1CFEB8DEC0FFD2F0D
:10028000F11DE35AFF4FF0829FB7F8940B8FEA8974
:10029000FB8980818062CFCFCF93DF93EC01888D83
:1002A0008823B9F0AA89BB89E889F9898C9185FDF1
:1002B00003C0808186FD0DC00FB607FCF7CF8C917F
:1002C00085FFF2CF808185FFEDCFCE010E94DD005A
:1002D000E9CFDF91CF910895FC0101900020E9F76B
:1002E0003197AF01481B590BBC0189E791E00C9491
:1002F0005F00CF93DF930E946C01EC0182E191E0FB
:100300000E946C018C0F9D1FDF91CF910895CF92B9
:10031000DF92EF92FF920F931F93CF93DF93CDB7AE
:10032000DEB7A1970FB6F894DEBF0FBECDBF9C011C
:10033000990F440B550B19A28E010F5D1F4F8AE0D8
:10034000C82ED12CE12CF12CCA01B901A7019601CC
:100350000E945703605DF80162938F0121153105FA
:100360004105510589F73097C9F0CF010E946C0112
:100370008C0182E191E00E946C01800F911FA19697
:100380000FB6F894DEBF0FBECDBFDF91CF911F91A6
:100390000F91FF90EF90DF90CF90089510E000E074
:1003A000E8CF1F920F920FB60F9211242F933F9315
:1003B0008F939F93AF93BF93809175019091760136
:1003C000A0917701B09178013091740123E0230F5F
:1003D0002D3758F50196A11DB11D2093740180930E
:1003E000750190937601A0937701B0937801809185
:1003F000700190917101A0917201B0917301019609
:10040000A11DB11D8093700190937101A0937201A1
:10041000B0937301BF91AF919F918F913F912F91B5
:100420000F900FBE0F901F90189526E8230F02968D
:10043000A11DB11DD2CF1F920F920FB60F921124A2
:100440002F933F934F935F936F937F938F939F93DC
:10045000AF93BF93EF93FF9389E791E00E94DD0094
:10046000FF91EF91BF91AF919F918F917F916F918C
:100470005F914F913F912F910F900FBE0F901F9062
:1004800018951F920F920FB60F9211242F938F93EE
:100490009F93EF93FF93E0918901F0918A0180810E
:1004A000E0918F01F091900182FD1BC090818091BD
:1004B00092018F5F8F7320919301821741F0E09139
:1004C0009201F0E0E758FE4F958F80939201FF91E3
:1004D000EF919F918F912F910F900FBE0F901F90D2
:1004E00018958081F4CF789484B5826084BD84B5FA
:1004F000816084BD85B5826085BD85B5816085BD1F
:1005000080916E00816080936E00109281008091D6
:10051000810082608093810080918100816080935E
:100520008100809180008160809380008091B10083
:1005300084608093B1008091B00081608093B000AE
:1005400080917A00846080937A0080917A00826042
:1005500080937A0080917A00816080937A00809104
:100560007A00806880937A001092C100E09189013E
:10057000F0918A0182E08083E0918501F09186010B
:100580001082E0918701F09188018FEC80831092B6
:100590009101E0918D01F0918E0186E08083E091E0
:1005A0008B01F0918C01808180618083E0918B01CF
:1005B000F0918C01808188608083E0918B01F091C3
:1005C0008C01808180688083E0918B01F0918C01A7
:1005D00080818F7D808385E191E00E94790186E2B0
:1005E00091E00E946C018AE090E00E94870180E324
:1005F00091E00E946C018CE490E00E9487018AE304
:1006000091E00E94790186E291E00E946C018CE405
:1006100090E00E94870180E391E00E946C018AE0F3
:1006200090E00E9487018BE491E00E94790181E6CD
:1006300091E00E946C0186E090E00E948701C0E09A
:10064000D0E02097F1F30E94C9008823D1F30E94E3
:100650000000F7CFE9E7F1E01382128288EE93E021
:10066000A0E0B0E084839583A683B78384E091E023
:100670009183808385EC90E09587848784EC90E07B
:100680009787868780EC90E0918B808B81EC90E05F
:10069000938B828B82EC90E0958B848B86EC90E040
:1006A000978B868B118E128E138E148E0895A1E275
:1006B0001A2EAA1BBB1BFD010DC0AA1FBB1FEE1FDC
:1006C000FF1FA217B307E407F50720F0A21BB30B27
:1006D000E40BF50B661F771F881F991F1A9469F7A3
:1006E00060957095809590959B01AC01BD01CF01FF
:1006F0000895EE0FFF1F0590F491E02D0994F894F2
:10070000FFCF00000000FF005F008C004C01BD0027
:100710009B00AF000D0A002D2D736562656C756D31
:1007200020537761702D2D006E696C616920613AEC
:1007300020006E696C616920623A20002D2D73657E
:1007400074656C616820537761702D2D002D2D2DFF
:100750007465732070656E677572616E67616E2D6A
:100760002D2D00686173696C206164616C61683A69
:02077000200067
:107E0000112484B714BE81FFF0D085E080938100F7
:107E100082E08093C00088E18093C10086E0809377
:107E2000C20080E18093C4008EE0C9D0259A86E02C
:107E300020E33CEF91E0309385002093840096BBD3
:107E4000B09BFECF1D9AA8958150A9F7CC24DD24C4
:107E500088248394B5E0AB2EA1E19A2EF3E0BF2EE7
:107E6000A2D0813461F49FD0082FAFD0023811F036
:107E7000013811F484E001C083E08DD089C08234E0
:107E800011F484E103C0853419F485E0A6D080C0E4
:107E9000853579F488D0E82EFF2485D0082F10E0AE
:107EA000102F00270E291F29000F111F8ED06801E7
:107EB0006FC0863521F484E090D080E0DECF843638
:107EC00009F040C070D06FD0082F6DD080E0C81688
:107ED00080E7D80618F4F601B7BEE895C0E0D1E017
:107EE00062D089930C17E1F7F0E0CF16F0E7DF06D8
:107EF00018F0F601B7BEE89568D007B600FCFDCFD4
:107F0000A601A0E0B1E02C9130E011968C91119780
:107F100090E0982F8827822B932B1296FA010C0160
:107F200087BEE89511244E5F5F4FF1E0A038BF0790
:107F300051F7F601A7BEE89507B600FCFDCF97BE46
:107F4000E89526C08437B1F42ED02DD0F82E2BD052
:107F50003CD0F601EF2C8F010F5F1F4F84911BD097
:107F6000EA94F801C1F70894C11CD11CFA94CF0C13
:107F7000D11C0EC0853739F428D08EE10CD085E9AC
:107F80000AD08FE07ACF813511F488E018D01DD067
:107F900080E101D065CF982F8091C00085FFFCCF94
:107FA0009093C60008958091C00087FFFCCF809118
:107FB000C00084FD01C0A8958091C6000895E0E648
:107FC000F0E098E1908380830895EDDF803219F02E
:107FD00088E0F5DFFFCF84E1DECF1F93182FE3DFCA
:107FE0001150E9F7F2DF1F91089580E0E8DFEE27F6
:047FF000FF270994CA
:027FFE00040479
:00000001FF
