:020000040000FA
:100000000C9462000C948A000C948A000C948A0070
:100010000C948A000C948A000C948A000C948A0038
:100020000C948A000C948A000C948A000C948A0028
:100030000C948A000C948A000C948A000C948A0018
:100040000C9492020C948A000C9402030C94DC022F
:100050000C948A000C948A000C948A000C948A00F8
:100060000C948A000C948A000000000024002700F1
:100070002A0000000000250028002B0000000000DE
:1000800023002600290004040404040404040202DA
:100090000202020203030303030301020408102007
:1000A0004080010204081020010204081020000012
:1000B0000008000201000003040700000000000027
:1000C0000000E90411241FBECFEFD8E0DEBFCDBF92
:1000D00011E0A0E0B1E0EAEEFAE002C005900D9276
:1000E000A637B107D9F722E0A6E7B1E001C01D921B
:1000F000A532B207E1F710E0C2E6D0E004C02197D4
:10010000FE010E946D05C136D107C9F70E94340374
:100110000C9473050C940000833081F028F4813036
:1001200099F08230A9F008958730A9F08830C9F09D
:100130008430B1F4809180008F7D03C08091800075
:100140008F7780938000089584B58F7784BD08955C
:1001500084B58F7DFBCF8091B0008F778093B00006
:1001600008958091B0008F7DF9CFCF93DF93E9EBB5
:10017000F0E08491E5EAF0E0D491E1E9F0E0C491A7
:10018000CC23A1F081110E948C00EC2FF0E0EE0F47
:10019000FF1FE458FF4FA591B491EC91ED2381E04E
:1001A00090E009F480E0DF91CF91089580E090E045
:1001B000FACF1F93CF93DF93282F30E0F901E25558
:1001C000FF4F8491F901E656FF4FD491F901EA57A8
:1001D000FF4FC491CC23A9F0162F81110E948C00EF
:1001E000EC2FF0E0EE0FFF1FEE58FF4FA591B491FA
:1001F0008FB7F894EC91111108C0D095DE23DC93F1
:100200008FBFDF91CF911F910895DE2BF8CF2FB7CD
:10021000F89460918401709185018091860190919C
:1002200087012FBF0895AF92BF92CF92DF92EF92D6
:10023000FF920F931F93CF93DF936C017B018B0190
:10024000040F151FEB015E01AE18BF08C017D107E0
:1002500059F06991D601ED91FC910190F081E02D6A
:10026000C6010995892B79F7C501DF91CF911F91BF
:100270000F91FF90EF90DF90CF90BF90AF900895D7
:10028000FC01538D448D252F30E0842F90E0821B9C
:10029000930B541710F0CF96089501970895FC0121
:1002A000918D828D981761F0A28DAE0FBF2FB11D79
:1002B0005D968C91928D9F5F9F73928F90E00895D1
:1002C0008FEF9FEF0895FC01918D828D981731F08B
:1002D000828DE80FF11D858D90E008958FEF9FEFDF
:1002E0000895FC01918D228D892F90E0805C9F4FB5
:1002F000821B91098F739927089588E891E00E94E5
:10030000710121E0892B09F420E0822F089580E01B
:1003100090E0892B29F00E947D0181110C9400004E
:100320000895FC01A48DA80FB92FB11DA35ABF4F8A
:100330002C91848D90E001968F739927848FA689E4
:10034000B7892C93A089B1898C91837080648C9338
:10035000938D848D981306C00288F389E02D8081E7
:100360008F7D80830895EF92FF920F931F93CF9319
:10037000DF93EC0181E0888F9B8D8C8D98131AC0E0
:10038000E889F989808185FF15C09FB7F894EE89C7
:10039000FF896083E889F989808183708064808324
:1003A0009FBF81E090E0DF91CF911F910F91FF906F
:1003B000EF900895F62E0B8D10E00F5F1F4F0F7317
:1003C0001127E02E8C8D8E110CC00FB607FCFACFD2
:1003D000E889F989808185FFF5CFCE010E949101DE
:1003E000F1CFEB8DEC0FFD2FF11DE35AFF4FF082A3
:1003F0009FB7F8940B8FEA89FB8980818062CFCF09
:10040000CF93DF93EC01888D8823B9F0AA89BB894B
:10041000E889F9898C9185FD03C0808186FD0DC036
:100420000FB607FCF7CF8C9185FFF2CF808185FF57
:10043000EDCFCE010E949101E9CFDF91CF910895D8
:10044000FC0101900020E9F73197AF01481B590BDF
:10045000BC0188E891E00C9413018F929F92AF92B7
:10046000BF920F931F93CF93DF93CDB7DEB7A197C2
:100470000FB6F894DEBF0FBECDBF19A2423008F40C
:100480004AE08E010F5D1F4F842E912CB12CA12CC0
:10049000A50194010E943505E62FB901CA01EA3091
:1004A000F4F4E05DD801EE938D01232B242B252B52
:1004B00079F790E080E0109719F0CD010E942002BA
:1004C000A1960FB6F894DEBF0FBECDBFDF91CF91DE
:1004D0001F910F91BF90AF909F908F900895E95C0E
:1004E000E1CFCF92DF92EF92FF92CF93DF936B0138
:1004F0007C016DE288E891E00E94B301EC0166277F
:100500007727CB016C197D098E099F094AE00E946B
:100510002D028C0F9D1FDF91CF91FF90EF90DF9008
:10052000CF9008951F920F920FB60F9211242F9320
:100530003F938F939F93AF93BF938091840190914A
:100540008501A0918601B09187013091830123E05C
:10055000230F2D3758F50196A11DB11D209383015E
:100560008093840190938501A0938601B0938701C5
:1005700080917F0190918001A0918101B0918201D1
:100580000196A11DB11D80937F0190938001A093DE
:100590008101B0938201BF91AF919F918F913F9163
:1005A0002F910F900FBE0F901F90189526E8230FE4
:1005B0000296A11DB11DD2CF1F920F920FB60F92BE
:1005C00011242F933F934F935F936F937F938F9358
:1005D0009F93AF93BF93EF93FF9388E891E00E94BE
:1005E0009101FF91EF91BF91AF919F918F917F9179
:1005F0006F915F914F913F912F910F900FBE0F9090
:100600001F9018951F920F920FB60F9211242F93DF
:100610008F939F93EF93FF93E0919801F09199014D
:100620008081E0919E01F0919F0182FD1BC090812D
:100630008091A1018F5F8F732091A201821741F0F9
:10064000E091A101F0E0E857FE4F958F8093A10162
:10065000FF91EF919F918F912F910F900FBE0F906F
:100660001F9018958081F4CF789484B5826084BD02
:1006700084B5816084BD85B5826085BD85B58160A6
:1006800085BD80916E00816080936E001092810024
:1006900080918100826080938100809181008160DF
:1006A00080938100809180008160809380008091A0
:1006B000B10084608093B1008091B000816080932C
:1006C000B00080917A00846080937A0080917A00F3
:1006D000826080937A0080917A00816080937A00B2
:1006E00080917A00806880937A001092C100A4E122
:1006F000B1E024E231E08D919D919927FC01E6560D
:10070000FF4F44918A579F4FFC018491882399F0B1
:1007100090E0880F991FFC01E859FF4FC591D491D3
:10072000FC01EE58FF4F859194918FB7F894E881C2
:10073000E42BE8838FBF2A173B07E9F6E5EAF0E0F0
:100740002491E1E9F0E084918823C1F090E0880FE2
:10075000991FFC01E859FF4FC591D491FC01EE5857
:10076000FF4FA591B4919FB7F8948881E22FE0954F
:100770008E2388838C91E823EC939FBFE0919801AE
:10078000F091990182E08083E0919401F0919501CC
:100790001082E0919601F09197018FEC8083109286
:1007A000A001E0919C01F0919D0186E08083E091A1
:1007B0009A01F0919B01808180618083E0919A0190
:1007C000F0919B01808188608083E0919A01F09193
:1007D0009B01808180688083E0919A01F0919B0168
:1007E00080818F7D808384E291E00E94200284E3F7
:1007F00091E00E94200220E4B22E44244A9433E087
:10080000532E612C712C40E0842E40E0942E07E0A2
:1008100010E0B0927C0080917A00806480937A002E
:1008200080917A0086FDFCCFA0917800B09179008C
:100830002EE531E00E946605A30192010E94160593
:10084000DA01C901C296A11DB11D7C01909301017D
:10085000809300010E94B50020917E01281719069F
:1008600011F1E0917A01F0917B01EE0FFF1FEC5E38
:10087000FE4FC0810E94070170937D0160937C014F
:1008800060E08C2F0E94D9000E94B50021E0009703
:1008900009F420E020937E01892B09F451C01093C4
:1008A0007B0100937A01C0917A01D0917B01FE0116
:1008B000EE0FFF1FEC5EFE4FA080C0907C01D09039
:1008C0007D0180917E0161E0882309F451C08A2D69
:1008D0000E94D9000E9407016C197D09E616F706EF
:1008E000ACF460E08A2D0E94D9002197D0937B015F
:1008F000C0937A010E94070170937D0160937C018F
:10090000D7FF04C010937B0100937A018091780196
:10091000909179010196909379018093780187E312
:1009200091E00E9420026091780170917901072E78
:10093000000C880B990B97FF08C00E94710208C039
:1009400010927B0110927A01AECF4AE00E942D02F4
:1009500084E391E00E9420028114910409F459CFAC
:100960000E947D01882309F454CF0E94000051CFDA
:100970008A2D0E94D9000E9407016C197D09E61694
:10098000F706ACF460E08A2D0E94D9002196D0933E
:100990007B01C0937A010E94070170937D016093EF
:1009A0007C01289724F010927B0110927A018091AB
:1009B000760190917701019690937701809376016B
:1009C00086E591E00E9420026091760170917701A6
:1009D000AECFE8E8F1E01382128288EE93E0A0E067
:1009E000B0E084839583A683B78386E091E091830A
:1009F000808385EC90E09587848784EC90E09787EE
:100A0000868780EC90E0918B808B81EC90E0938BDB
:100A1000828B82EC90E0958B848B86EC90E0978BB8
:100A2000868B118E128E138E148E0895052E97FBD1
:100A30001EF400940E942D0557FD07D00E94350535
:100A400007FC03D04EF40C942D055095409530953D
:100A500021953F4F4F4F5F4F08959095809570952A
:100A600061957F4F8F4F9F4F0895A1E21A2EAA1BC9
:100A7000BB1BFD010DC0AA1FBB1FEE1FFF1FA2174E
:100A8000B307E407F50720F0A21BB30BE40BF50B4B
:100A9000661F771F881F991F1A9469F760957095D4
:100AA000809590959B01AC01BD01CF010895A29F57
:100AB000B001B39FC001A39F700D811D1124911D32
:100AC000B29F700D811D1124911D08950E9457053C
:100AD000B7FF0895821B930B0895EE0FFF1F05903B
:100AE000F491E02D0994F894FFCF64000000000019
:100AF000B30113014001000271014F0163010200C3
:100B0000030004000500060007000800090048650E
:100B10006C6C6F2042494E55532041534F000D0AD3
:100B2000006A756D6C616820697465726173692013
:100B300061746173206B652062617761683A20009F
:100B40006A756D6C61682069746572617369206291
:100B500061776168206B6520617461733A200000E1
:107E0000112484B714BE81FFF0D085E080938100F7
:107E100082E08093C00088E18093C10086E0809377
:107E2000C20080E18093C4008EE0C9D0259A86E02C
:107E300020E33CEF91E0309385002093840096BBD3
:107E4000B09BFECF1D9AA8958150A9F7CC24DD24C4
:107E500088248394B5E0AB2EA1E19A2EF3E0BF2EE7
:107E6000A2D0813461F49FD0082FAFD0023811F036
:107E7000013811F484E001C083E08DD089C08234E0
:107E800011F484E103C0853419F485E0A6D080C0E4
:107E9000853579F488D0E82EFF2485D0082F10E0AE
:107EA000102F00270E291F29000F111F8ED06801E7
:107EB0006FC0863521F484E090D080E0DECF843638
:107EC00009F040C070D06FD0082F6DD080E0C81688
:107ED00080E7D80618F4F601B7BEE895C0E0D1E017
:107EE00062D089930C17E1F7F0E0CF16F0E7DF06D8
:107EF00018F0F601B7BEE89568D007B600FCFDCFD4
:107F0000A601A0E0B1E02C9130E011968C91119780
:107F100090E0982F8827822B932B1296FA010C0160
:107F200087BEE89511244E5F5F4FF1E0A038BF0790
:107F300051F7F601A7BEE89507B600FCFDCF97BE46
:107F4000E89526C08437B1F42ED02DD0F82E2BD052
:107F50003CD0F601EF2C8F010F5F1F4F84911BD097
:107F6000EA94F801C1F70894C11CD11CFA94CF0C13
:107F7000D11C0EC0853739F428D08EE10CD085E9AC
:107F80000AD08FE07ACF813511F488E018D01DD067
:107F900080E101D065CF982F8091C00085FFFCCF94
:107FA0009093C60008958091C00087FFFCCF809118
:107FB000C00084FD01C0A8958091C6000895E0E648
:107FC000F0E098E1908380830895EDDF803219F02E
:107FD00088E0F5DFFFCF84E1DECF1F93182FE3DFCA
:107FE0001150E9F7F2DF1F91089580E0E8DFEE27F6
:047FF000FF270994CA
:027FFE00040479
:00000001FF
